:020000040800F2
:1000000000200020B9000008C91D0008DD1D0008FF
:1000100000000000000000000000000000000000E0
:10002000000000000000000000000000C91D0008E2
:100030000000000000000000C91D0008C91D0008E4
:10004000C91D0008C91D0008C91D0008C91D0008F8
:10005000C91D0008C91D0008C91D0008C91D0008E8
:1000600000000000C91D0008C91D0008C91D0008C6
:10007000C91D0008C91D000800000000B3020008E7
:1000800000000000C91D0008000000000000000082
:10009000C91D000800000000C91D0008C91D000896
:1000A000C91D0008C91D0008C91D0008311300083A
:1000B000E1180008C91D000801F002FE01F0C4FDAE
:1000C000E1235B02180001F08BF862B6C04600F035
:1000D000B1FA024B180001F0F3F9FEE7F4600008F2
:1000E00080B582B000AF7860C0467B685A1E7A60E7
:1000F000002BFAD1C046C046BD4602B080BD80B5D7
:1001000084B000AF78603A4B3A4A5A60384B394A6B
:100110009A60374B05221A6007E0354B1A68802336
:100120005B02134001D000235EE0A023DB051A69C7
:1001300080235B001340F0D12D4B00221A602C4B22
:100140002C4A5A602A4B2B4A9A60294B05221A6086
:1001500007E0274B1A6880235B02134001D000237D
:1001600042E0A023DB051A6980235B001340F0D036
:100170001F4B00221A601E4B1E4A5A601C4B1D4A20
:100180009A601B4B05221A600023FB6021E0184B8C
:100190001A6880235B02134001D0002324E0A023CF
:1001A000DB051A6980235B001340F0D107E0104B98
:1001B0001A6880235B02134001D0002314E0A023BF
:1001C000DB051A6980235B001340F0D0FB68013324
:1001D000FB60FA687B689A42E1DB054B00221A60FB
:1001E000034B9B68034AD31A1800BD4604B080BD78
:1001F00010E000E0FFFFFF0080B582B000AF02001A
:10020000FB1D1A70FB1D1B781900104801F03EFF02
:10021000030019000E4801F039FF03005A1E0D4B70
:100220005A600C4B00229A600A4B05221A60C046A5
:10023000084B1A6880235B021340F9D0054B00225B
:100240001A60C046BD4602B080BDC04640420F00A5
:100250000048E80110E000E080B500AF0A4B0B4A0F
:100260005A60094B00229A60074B05221A60C0466B
:10027000054B1A6880235B021340F9D0024B002221
:100280001A60C046BD4680BD10E000E0FF7C000063
:1002900080B582B000AF786001E0FFF7DDFF7B68DA
:1002A0005A1E7A60002BF8D1C046C046BD4602B047
:1002B00080BD80B500AF8023DB051A698023DB0594
:1002C00001218A431A61394B1B685A1C374B1A604B
:1002D000374B1A68354B1B689A4208DDA023DB05B3
:1002E0005A69A023DB0504210A435A6107E0A023D1
:1002F000DB055A69A023DB0504218A435A612D4B93
:100300001A682A4B1B689A4208DDA023DB055A694C
:10031000A023DB0510210A435A6107E0A023DB0577
:100320005A69A023DB0510218A435A61224B1A68BF
:100330001E4B1B689A4208DDA023DB055A69A023E7
:10034000DB0508210A435A6107E0A023DB055A694F
:10035000A023DB0508218A435A61184B1A68134B06
:100360001B689A4208DDA023DB055A69A023DB0540
:1003700020210A435A6107E0A023DB055A69A02324
:10038000DB0520218A435A61084B1B68642B0ADD78
:10039000064B00221A60A023DB055A69A023DB0567
:1003A00014210A435A61C046BD4680BD6800002042
:1003B0006C000020700000207400002078000020F5
:1003C00080B500AF734BDA6A724B01210A43DA62DF
:1003D000A023DB051B68704A1A40A023DB0580219F
:1003E000C9030A431A60A023DB055A68A023DB0572
:1003F0006A490A405A60A023DB051B68684A1A4014
:10040000A023DB05802149040A431A60A023DB05F1
:100410005A68A023DB0563490A405A60A023DB0524
:100420001B680C2293431A00A023DB0504210A4316
:100430001A60A023DB055A68A023DB0502218A434A
:100440005A60A023DB051B68302293431A00A023C7
:10045000DB0510210A431A60A023DB055A68A0239C
:10046000DB0504218A435A60A023DB051B68C022F8
:1004700093431A00A023DB0540210A431A60A023FE
:10048000DB055A68A023DB0508218A435A60A023B4
:10049000DB051B68444A1A40A023DB058021490084
:1004A0000A431A60A023DB055A68A023DB0510214C
:1004B0008A435A60A023DB051B683C4A1A40A023EC
:1004C000DB058021C9000A431A60A023DB055A68B6
:1004D000A023DB0520218A435A60A023DB050122EB
:1004E00052429A602B4BDA6A2A4B01210A43DA62A4
:1004F000A023DB051B682E4A1A40A023DB058021C0
:10050000C9040A431A60A023DB055A69A023DB054E
:10051000802189010A435A61A023DB055A69A0237F
:10052000DB0504218A435A611A4B9A6B194B01214E
:100530000A439A638023DB051E4ADA621E4B1A685F
:100540001D4B802109020A431A608023DB051A68CB
:100550008023DB0510210A431A608023DB051A681B
:100560008023DB0580210A431A608023DB05DA68DB
:100570008023DB0501210A43DA608023DB051A684A
:100580008023DB0501210A431A6062B6C046C046DB
:10059000BD4680BD00100240FFFF3FFFFFF7FFFF99
:1005A000FFFFFFFCFFEFFFFFFFFCFFFFFFF3FFFF7D
:1005B000FFFFFFF35408000000E100E090B58DB0AC
:1005C00000AF78607A68184B1100180004F086FAC2
:1005D000A023DB055A69A023DB0514490A405A61B0
:1005E0000A20FFF755FE7B68180001F041FA082445
:1005F0003B192721180001F075FAA023DB055A6981
:10060000A023DB05802189010A435A610A20FFF7F4
:100610003FFE3A19064B1100180004F05FFAC0467D
:10062000BD460DB090BDC0468C5F0008FFDFFFFFE8
:10063000985F0008F0B5B7B006AF002388243A19D8
:10064000136000238422BA1813603223BC22BA1824
:1006500013603223B822BA1813600123AC22BA18EF
:1006600013600023A422BA18136000239C22BA1836
:100670001360C64BDA6AC54B01210A43DA62A02334
:10068000DB051A68A023DB05C1490A401A60A023D4
:10069000DB05DA68A023DB05802149020A43DA6022
:1006A000A023DB05DA68A023DB05BA490A40DA603B
:1006B000FA235B001800FFF7EBFDB74B180004F0BE
:1006C00099FAFFF77DFE96239B01180001F062F86E
:1006D000FA239B001800FFF7DBFDB04B180004F075
:1006E00089FAAF4B1800FFF769FFAE4B1800FFF710
:1006F00065FFAD4B1800FFF761FFAC4B1800FFF72B
:100700005DFFAB4B1800FFF759FFAA4B1800FFF72E
:1007100055FFA94B1800FFF751FFA84B1800FFF732
:100720004DFFA74B180004F065FA00233A19136037
:10073000AC217B181A68E1235B009A4206DB012397
:100740007A1813600023A422BA1813606420FFF7FC
:10075000D6FC03008022B9180B60BB181B68002B65
:1007600038DDBB18186803F007FD0022954B02F036
:10077000D9FB02000B001000190003F02DFD031C33
:10078000FB67F96FFE20800501F00AFF031CBB67C1
:10079000A4243B19186802F03BF8031CB96F181C1D
:1007A00001F060FD031C181C02F012F803003A1956
:1007B0001360AC257B1919683B19186801F066FCB9
:1007C0000300A822BA1813607B191B6801337A1939
:1007D000136003E07C4B180004F080F97B4B1B682E
:1007E0009B68180003F000FF01F0C2F9031E48DD0A
:1007F0001C243B194F21180001F074F993257B1933
:100800003A1912781A703B190233180003F014FEDB
:100810000300B426BA1913603B190533180003F01E
:100820000BFE0300B022B9180B607B191B78532B09
:1008300027D1B823FB181B68BA181360BC23FB1818
:100840001B68BA1913600320FFF722FD11E0A323F0
:10085000FB181A785E493B00180004F003FA3B00CD
:10086000180001F005F99C22BB181B680133BA1867
:1008700013609C22BB181B68042BE8DD0023BA1808
:1008800013609322BB181B78422B1BD0BB181B781C
:10089000442B17D0BB181B78462B13D0BB181B78E2
:1008A000482B0FD0BB181B78572B0BD0BB181B78CD
:1008B000412B07D0BB181B78432B03D0BB181B78E8
:1008C000532B07D1A023DB055A69A023DB050221A6
:1008D0000A435A619323FB181B78582B4CD13D4B8C
:1008E0001D221A603C4B1E221A603C4B1800FFF779
:1008F000CFFC384B44221A60374B46221A60374BE4
:100900001800FFF7C5FC334B5E221A60324B64229D
:100910001A60324B1800FFF7BBFC2E4B00221A6006
:100920002D4B00221A60FA239B001800FFF7B0FC41
:100930002B4B1E221A602B4B1E221A60274B1800CD
:10094000FFF7A6FC264B46221A60264B46221A6069
:10095000224B1800FFF79CFC214B64221A60214BAC
:1009600064221A601D4B1800FFF792FC1C4B0022FA
:100970001A601C4B00221A609323FB181B78592B1A
:1009800058D100238C22BA18136048E000100240AE
:10099000FFFFFCFFFFFFFDFFA85F000808600008E5
:1009A00018600008286000083460000840600008F3
:1009B0004C6000085860000864600008706000081F
:1009C0007C60000884D7E741C46000080400002070
:1009D000D06000086C00002070000020B80B000000
:1009E0007400002078000020C34B60221A60C34BC3
:1009F00064221A60FA23DB001800FFF749FCBE4BA3
:100A000000221A60BD4B64221A60BD4B1800FFF72C
:100A10003FFC8C22BB181B680133BA1813608C236F
:100A2000FB181B68032BDFDDB34B00221A60B34BAE
:100A300000221A609323FB181B785A2B1ED1AE4B51
:100A400064221A60AD4B32221A60AE4B1800FFF7D9
:100A50001FFCA94B32221A60A84B64221A60A94BD2
:100A60001800FFF715FCA44B00221A60A34B0022CC
:100A70001A60FA239B001800FFF70AFCB422BB1887
:100A80001B68322B1CD1B0217B181B68322B17DD61
:100A90009323FB181B78412B12D1BB181B68642BC6
:100AA0000EDC7B181B68642B0ADC7B181B68B821E2
:100AB00079180B60BB181B68BC22BA18136055E18B
:100AC000B422BB181B68312B1CDDB0217B181B68BE
:100AD000312B17DD9323FB181B78422B12D1BB1847
:100AE0001B68642B0EDC7B181B68642B0ADC7B18EC
:100AF0001B68B82179180B60BB181B68BC22BA1898
:100B0000136033E1B422BB181B68322B1CDDB0210B
:100B10007B181B68322B17D19323FB181B78432BB0
:100B200012D1BB181B68642B0EDC7B181B68642B6E
:100B30000ADC7B181B68B82179180B60BB181B688E
:100B4000BC22BA18136011E1B4217B181B68312B49
:100B500044DDB022BB181B68322B3FDC9323FB180B
:100B60001B78442B3AD17B181B68642B36DCBB18EE
:100B70001B68642B32DCBB181B68092B0BD0BB181D
:100B80001B68042B07D0BB181B68002B03D0BB18B5
:100B90001B68012B15D1B822BB181B68312B03D061
:100BA000BB181B68322B0CD1BC23FB181B68B4226A
:100BB000BA181360B823FB181B68B022BA18136068
:100BC000D4E0B023FB181B68B822BA181360B42312
:100BD000FB181B68BC22BA181360C7E0B422BB180C
:100BE0001B68322B1CD1B0217B181B68312B17DC02
:100BF0009323FB181B78452B12D1BB181B68642B61
:100C00000EDC7B181B68642B0ADC7B181B68B82180
:100C100079180B60BB181B68BC22BA181360A5E0DA
:100C2000B4217B181B68312B44DCB022BB181B6835
:100C3000312B3FDC9323FB181B78462B3AD17B18D2
:100C40001B68642B36DCBB181B68642B32DCBB18BA
:100C50001B68092B0BD0BB181B68042B07D0BB18D3
:100C60001B68002B03D0BB181B68012B15D1B822C1
:100C7000BB181B68312B03D0BB181B68322B0CD15F
:100C8000BC23FB181B68B422BA181360B823FB18E6
:100C90001B68B022BA18136068E0B023FB181B6809
:100CA000B822BA181360B423FB181B68BC22BA1808
:100CB00013605BE0B422BB181B68312B24DCB0212D
:100CC0007B181B68322B1FD19323FB181B78472BF3
:100CD0001AD1BB181B68642B16DC7B181B68642BAD
:100CE00012DC7B181B68B82179180B60BB181B68D5
:100CF000BC22BA18136039E06C000020700000209C
:100D0000970400002E220000B422BB181B68322B6F
:100D10001CDCB0217B181B68312B17DD9323FB18DB
:100D20001B78482B12D1BB181B68642B0EDC7B1878
:100D30001B68642B0ADC7B181B68B82179180B60D0
:100D4000BB181B68BC22BA1813600FE09323FB1872
:100D500053221A70B823FB181B68B022BA1813600C
:100D6000BC23FB181B68B422BA1813609323FB182A
:100D70001C78CF4B1A68CF4B1B68A32179180978D0
:100D8000B02038180668B42038180568CA4804919D
:100D9000039302929423FB181B6801939823FB187A
:100DA0001B68009333002A00210003F097FEC34B19
:100DB0007B67A823FB181A687B6FD31A132B03DCFD
:100DC000A3217B184E221A70A8217B181A687B6F0A
:100DD000D31A132B0ADD7B181A687B6FD31A322BB8
:100DE00004DCA323FB184D221A7040E0A8217B18D5
:100DF0001A687B6FD31A322B0ADD7B181A687B6F57
:100E0000D31A5A2B04DCA323FB184F221A702EE0AE
:100E1000A8217B181A687B6FD31A5A2B0ADD7B181E
:100E20001A687B6FD31A822B04DCA323FB184B2296
:100E30001A701CE0A8217B181A687B6FD31A822BCA
:100E40000ADD7B181A687B6FD31ABE2B04DCA32340
:100E5000FB184C221A700AE0A823FB181A687B6F53
:100E6000D31ABE2B03DDA323FB1850221A70B42122
:100E70007B181B68323B5B003B677B181B68322288
:100E8000D31A5B00FB66B0203B181B68323B5B004B
:100E900098243A1913603B181B683222D31A5B005E
:100EA0009422BA1813607B181B68372B14DC7B184C
:100EB0001B682C2B10DD3B181B68312B0CDD7C4B89
:100EC00000221A607B4B3A1912681A607C4B002290
:100ED0001A607C4B00221A60B422BB181B68372BA7
:100EE00016DCBB181B682C2B12DDB023FB181B680B
:100EF000312B0DDC6E4B9422BA1812681A606D4BC0
:100F000000221A606E4B00221A606E4B00221A609B
:100F1000B423FB181B68372B2ADDB023FB181B6892
:100F2000312B25DD386F03F027F904000D009823DD
:100F3000FB18186803F020F90022634B02F0E8FA6E
:100F400002000B002000290002F04EFD02000B0001
:100F50001000190003F0DAF80200554B1A60554BE7
:100F60003A6F1A60564B00221A60564B00221A60E4
:100F7000B423FB181B68372B34DDB023FB181B6828
:100F8000322B2FDC386F03F0F7F804000D009423A8
:100F9000FB18186803F0F0F800224B4B02F0B8FA87
:100FA00002000B002000290002F01EFD02000B00D1
:100FB0001000190000228023DB0501F077FC0200FD
:100FC0000B001000190003F0A1F80200394B1A6061
:100FD0003B6FDA1E364B1A60394B00221A60394BD0
:100FE00000221A60B423FB181B682C2B2ADCB023C8
:100FF000FB181B68312B25DDF86E03F0BDF80400EB
:101000000D009823FB18186803F0B6F800222E4B49
:1010100002F07EFA02000B002000290002F0E4FC3E
:1010200002000B001000190003F070F80200244BBE
:101030001A60244BFA6E1A601E4B00221A601C4B79
:1010400000221A60B423FB181B682C2B01DDFFF76C
:101050006FFBB023FB181B68312B01DDFFF768FB2A
:10106000174BFA6E1A60F86E03F086F804000D0054
:101070009423FB18186803F07FF80022124B02F04B
:1010800047FA02000B002000290002F0ADFC02002C
:101090000B001000190003F039F80200094B1A6028
:1010A000044B00221A60024B00221A60FFF740FB3B
:1010B0006C00002070000020D8600008055E000071
:1010C00074000020780000200000E03F90B585B05B
:1010D00000AF78603960184B1B68002B02D10123E8
:1010E0005B4224E00023FB600AE0FB685A1CFA60C4
:1010F0003A68D418114B180000F0ADF903002370C2
:101100007B68013B1A00FB68934205D20B4B180029
:1011100000F0CCF9031EE8D1FB68002B06D03A683A
:10112000FB68D31800221A70FB6800E00023180047
:10113000BD4605B090BDC046140100207C000020D3
:1011400080B584B000AF78603960224B1B68002BFB
:1011500002D101235B4238E07B683F2B0BDCC046A9
:101160001D4B180000F0A2F903004022D21A7B6840
:101170009A42F5D302E002235B4226E00023FB60A3
:101180000BE03A68FB68D3181A78134B110018006B
:1011900000F030F9FB680133FB607B68FA689A4223
:1011A000EFD30E4B1B68082213400DD10B4B1A686E
:1011B0000A4B08210A431A60074B180000F04BF94C
:1011C00003001A00054B9A6200231800BD4604B0C4
:1011D00080BDC04614010020C80000200038014036
:1011E00080B584B000AF786072B6C046454B00222F
:1011F0009A64444B9A6C434B5A64424B5A6C414B31
:101200001A64414B00229A643F4B9A6C3E4B5A64DD
:101210003D4B5A6C3C4B1A643C4B01221A603C4BD0
:1012200000221A603B4BDA6A3A4B01210A43DA6228
:10123000394BFB607968F86800F028FF0300FB6019
:10124000A023DB059A68A023DB058021C9020A439D
:101250009A60A023DB055A68A023DB052F490A40CA
:101260005A60A023DB051B682D4A1A40A023DB052A
:10127000802109030A431A60A023DB055A6AA023D0
:10128000DB0540210A435A62A023DB051B68254A7F
:101290001A40A023DB05802189030A431A60A0239A
:1012A000DB055A6AA023DB058021C9000A435A6284
:1012B000184B5A6B174B8021C9010A435A631A4BCA
:1012C0001A68194B6C210A431A60174B00225A60A6
:1012D000154B00229A60144BFA68DA60124B1A68B8
:1012E000114B01210A431A60104B1A680F4B8021E1
:1012F00009050A431A6062B6C046C046BD4604B03E
:1013000080BDC0467C000020C800002014010020E1
:1013100018010020001002400048E801FFFDFFFF17
:10132000FFFFF3FFFFFFCFFF0038014000E100E0C7
:1013300080B500AF084BDB698022134001D000F07C
:1013400025F8054BDB692022134001D000F006F898
:10135000C046BD4680BDC0460038014080B500AFE4
:10136000074B5B6ADAB2074B1100180000F042F835
:10137000031E02D0044B01221A60C046BD4680BD48
:10138000003801407C0000201801002080B500AF2B
:10139000164B180000F08AF8031E08D0134B1800F3
:1013A00000F059F803001A00114B9A621BE0104B31
:1013B0001A680F4B08218A431A600D4BDB694022E3
:1013C000134005D00A4B1A6A094B40210A431A629E
:1013D000074BDB698022134005D0054B9A69044B0B
:1013E00010210A439A61C046BD4680BDC800002056
:1013F0000038014080B582B000AF78600A00FB1C65
:101400001A707B681A6C7B685B6C9A4205D17B68AA
:101410009B6C002B01D0012319E072B6C0467B689B
:101420001B6C591C7A6811647A68F91C0978D154CC
:101430007B689B6C5A1C7B689A647B681B6C402B96
:1014400002D17B6800221A6462B6C04600231800ED
:10145000BD4602B080BD80B584B000AF78607B68C7
:101460009B6C002B01D100231CE072B6C0467B6848
:101470005B6C591C7A6851640F22BA187968CB5C8E
:1014800013707B685B6C402B02D17B6800225A642E
:101490007B689B6C5A1E7B689A6462B6C0460F23B9
:1014A000FB181B781800BD4604B080BD80B582B023
:1014B00000AF78607B689B6C1800BD4602B080BDB1
:1014C00080B582B000AF78600B4B1B68002B09D150
:1014D00001235B420BE07B685A1C7A6019000120F3
:1014E000FFF72EFE7B681B78002BF4D10023180039
:1014F000BD4602B080BDC0461401002080B582B058
:1015000000AF0200FB1D1A70FB1D19000120FFF740
:1015100017FEC046BD4602B080BD80B500AF044B8B
:101520001800FFF798FF03001800BD4680BDC046B5
:101530007C000020B0B584B000AF786039601E4BED
:101540001B68002B02D101235B4231E00023FB60CA
:101550000B23FB1800221A7017E0C046174B180027
:10156000FFF7A4FF031EF9D00B257C19134B1800BD
:10157000FFF771FF03002370FB685A1CFA601A0022
:101580007B689B187A1912781A703B68013BFA68DD
:101590009A4204DA0B23FB181B780D2BDDD1FB6874
:1015A000002B04DDFB687A68D31800221A70FB68F0
:1015B0001800BD4604B0B0BD140100207C0000201E
:1015C00090B583B000AFFC1DFFF7A7FF03002370A9
:1015D000FB1D1B781800FFF791FFFB1D1B781800FF
:1015E000BD4603B090BDB0B584B000AF786039603F
:1015F000214B1B68002B02D101235B4237E0002303
:10160000FB600B23FB1800221A701DE0C0461B4B29
:101610001800FFF74BFF031EF9D00B257C19174B61
:101620001800FFF718FF030023702C003B191B78EC
:101630001800FFF763FFFB685A1CFA601A007B680A
:101640009B183A1912781A703B68013BFA689A4263
:1016500004DA0B23FB181B780D2BD7D1FB68002B6A
:1016600004DDFB687A68D31800221A70FB68180042
:10167000BD4604B0B0BDC046140100207C0000206F
:1016800090B585B000AF78603960184B1B68002BAF
:1016900002D101235B4224E00023FB600AE0FB68E7
:1016A0005A1CFA603A68D418114B180000F0ABF9D4
:1016B000030023707B68013B1A00FB68934205D24C
:1016C0000B4B180000F0CAF9031EE8D1FB68002B91
:1016D00006D03A68FB68D31800221A70FB6800E055
:1016E00000231800BD4605B090BDC046B8010020DB
:1016F0002001002080B584B000AF78603960224BB3
:101700001B68002B02D101235B4238E07B683F2B32
:101710000BDCC0461D4B180000F0A0F9030040226E
:10172000D21A7B689A42F5D302E002235B4226E09C
:101730000023FB600BE03A68FB68D3181A78134B60
:101740001100180000F02EF9FB680133FB607B6884
:10175000FA689A42EFD30E4B1B68082213400DD152
:101760000B4B1A680A4B08210A431A60074B1800F2
:1017700000F049F903001A00054B9A620023180093
:10178000BD4604B080BDC046B80100206C010020F9
:101790000044004080B584B000AF786072B6C046A7
:1017A000454B00229A64444B9A6C434B5A64424B1B
:1017B0005A6C414B1A64414B00229A643F4B9A6C1D
:1017C0003E4B5A643D4B5A6C3C4B1A643C4B0122D5
:1017D0001A603C4B00221A603B4BDA6A3A4B0121FB
:1017E0000A43DA62394BFB607968F86800F04EFC16
:1017F0000300FB60A023DB059A68A023DB058021A2
:1018000049050A439A60A023DB055A68A023DB053B
:101810002F490A405A60A023DB051B682D4A1A4055
:10182000A023DB05802189050A431A60A023DB057C
:101830005A6AA023DB058021C9040A435A62A02307
:10184000DB051B689B009A08A023DB0580210906A5
:101850000A431A60A023DB055A6AA023DB05802116
:10186000C9050A435A62184B9A6B174B80218902AB
:101870000A439A63184B1A68174B6C210A431A6083
:10188000154B00225A60144B00229A60124BFA68E2
:10189000DA60114B1A68104B01210A431A600F4B92
:1018A0001A680E4B802149050A431A6062B6C04689
:1018B000C046BD4604B080BD200100206C01002060
:1018C000B8010020BC010020001002400048E801DF
:1018D000FFBFFFFFFFFFFFCF0044004000E100E03B
:1018E00080B500AF084BDB698022134001D000F0C7
:1018F00025F8054BDB692022134001D000F006F8E3
:10190000C046BD4680BDC0460044004080B500AF23
:10191000074B5B6ADAB2074B1100180000F042F87F
:10192000031E02D0044B01221A60C046BD4680BD92
:101930000044004020010020BC01002080B500AF21
:10194000164B180000F08AF8031E08D0134B18003D
:1019500000F059F803001A00114B9A621BE0104B7B
:101960001A680F4B08218A431A600D4BDB6940222D
:10197000134005D00A4B1A6A094B40210A431A62E8
:10198000074BDB698022134005D0054B9A69044B55
:1019900010210A439A61C046BD4680BD6C010020FB
:1019A0000044004080B582B000AF78600A00FB1CA4
:1019B0001A707B681A6C7B685B6C9A4205D17B68F5
:1019C0009B6C002B01D0012319E072B6C0467B68E6
:1019D0001B6C591C7A6811647A68F91C0978D15417
:1019E0007B689B6C5A1C7B689A647B681B6C402BE1
:1019F00002D17B6800221A6462B6C0460023180038
:101A0000BD4602B080BD80B584B000AF78607B6811
:101A10009B6C002B01D100231CE072B6C0467B6892
:101A20005B6C591C7A6851640F22BA187968CB5CD8
:101A300013707B685B6C402B02D17B6800225A6478
:101A40007B689B6C5A1E7B689A6462B6C0460F2303
:101A5000FB181B781800BD4604B080BD80B582B06D
:101A600000AF78607B689B6C1800BD4602B080BDFB
:101A700080B582B000AF78600B4B1B68002B09D19A
:101A800001235B420BE07B685A1C7A60190001203D
:101A9000FFF730FE7B681B78002BF4D10023180081
:101AA000BD4602B080BDC046B801002080B582B0FE
:101AB00000AF0200FB1D1A70FB1D19000120FFF78B
:101AC00019FEC046BD4602B080BD80B500AF044BD4
:101AD0001800FFF798FF03001800BD4680BDC04600
:101AE00020010020B0B584B000AF786039601E4B93
:101AF0001B68002B02D101235B4231E00023FB6015
:101B00000B23FB1800221A7017E0C046174B180071
:101B1000FFF7A4FF031EF9D00B257C19134B180007
:101B2000FFF771FF03002370FB685A1CFA601A006C
:101B30007B689B187A1912781A703B68013BFA6827
:101B40009A4204DA0B23FB181B780A2BDDD1FB68C1
:101B5000002B04DDFB687A68D31800221A70FB683A
:101B60001800BD4604B0B0BDB8010020200100201F
:101B700080B500AF034B1800FFF770FF030018009B
:101B8000BD4680BD2001002090B583B000AFFC1D94
:101B9000FFF79BFF03002370FB1D1B781800FFF766
:101BA00085FFFB1D1B781800BD4603B090BDB0B586
:101BB00084B000AF78603960214B1B68002B02D1E4
:101BC00001235B4237E00023FB600B23FB1800225C
:101BD0001A701DE0C0461B4B1800FFF73FFF031EA5
:101BE000F9D00B257C19174B1800FFF70CFF0300E9
:101BF00023702C003B191B781800FFF757FFFB6878
:101C00005A1CFA601A007B689B183A1912781A70ED
:101C10003B68013BFA689A4204DA0B23FB181B78F5
:101C20000D2BD7D1FB68002B04DDFB687A68D31835
:101C300000221A70FB681800BD4604B0B0BDC04653
:101C4000B80100202001002080B582B000AF164B03
:101C50007B60164B3B6007E07A68131D7B603B6836
:101C6000191D396012681A603A68114B9A42F3D311
:101C700004E03B681A1D3A6000221A603A680D4B76
:101C80009A42F6D30C4B3B6004E03B681A1D3A6065
:101C90001B6898473A68094B9A42F6D3C046C0463B
:101CA000BD4602B080BDC0460864000800000020A8
:101CB00068000020E40100200864000808640008AF
:101CC00080B500AF3B4B1A683A4B01210A431A60BA
:101CD000C046384B1B6804221340FAD0354B012212
:101CE000DA60C046334BDB680C221340042BF9D179
:101CF000314B1A68304B02210A431A602E4B1A6886
:101D00002D4B01210A431A602A4B9A6B294B8021E3
:101D100049050A439A63294B802212011A60C04682
:101D2000264B5B6810221340FAD1224BDA68214B14
:101D300023490A40DA601F4BDA681E4B8821C90329
:101D40000A43DA601B4A1B4BD268DA60194A194B06
:101D5000D268DA60174A174BD268DA60154B1A68F6
:101D6000144B18490A401A60124B1A68114B802113
:101D700049040A431A60C0460E4B1A6880239B042C
:101D80001340F9D00B4BDA680A4B03218A43DA601F
:101D9000084BDA68074B03210A43DA60C046054B5B
:101DA000DB680C2213400C2BF9D1C046C046BD465F
:101DB00080BDC0460010024000200240007000407C
:101DC000FFFF02FFFFFFFFFE80B500AF024B1800D0
:101DD000FFF776FBFEE7C0461C61000880B500AF48
:101DE000024B1800FFF76CFBFEE7C0464C61000891
:101DF00080B582B000AF7860FEE780B582B000AFFA
:101E0000786001235B421800BD4602B080BD80B5FA
:101E100084B000AFF860B9607A60044B0C221A609D
:101E200001235B421800BD4604B080BDCC010020F8
:101E300080B500AF034B0B221A6001235B421800F0
:101E4000BD4680BDCC01002080B582B000AF786077
:101E500039603B68802292015A6000231800BD4619
:101E600002B080BD80B500AF01231800BD4680BD23
:101E700080B582B000AF78603960044B16221A60DA
:101E800001235B421800BD4602B080BDCC0100209A
:101E900080B582B000AF78603960044B1F221A60B1
:101EA00001235B421800BD4602B080BDCC0100207A
:101EB00080B584B000AFF860B9607A600023180084
:101EC000BD4604B080BD80B582B000AF7860396097
:101ED0003B68802292015A6000231800BD4602B080
:101EE00080BD80B582B000AF786001235B421800EE
:101EF000BD4602B080BD80B582B000AF7860044BB3
:101F000002221A6001235B421800BD4602B080BD68
:101F1000CC01002080B582B000AF7860044B0A226B
:101F20001A6001235B421800BD4602B080BDC04666
:101F3000CC01002080B582B000AF78607B68022BB6
:101F400001D8012303E0044B09221A600023180082
:101F5000BD4602B080BDC046CC01002080B586B031
:101F600000AF7860124B7B61124B3B61124B1B68D8
:101F7000002B02D1104B7A691A600F4B1B68FB6073
:101F80000D4B1A687B68D3183A699A4205D20B4BFD
:101F90000C221A6001235B4206E0074B1A687B683B
:101FA000D218054B1A60FB681800BD4606B080BD0C
:101FB000E401002000100020C8010020CC01002016
:101FC00080B588B000AFF860B9607A600023BB616B
:101FD000FB68002B22D10023FB611AE0FFF79DFA7A
:101FE00003001A0017217B181A70BB685A1CBA60CC
:101FF0007A181278D2B21A70BB690133BB617B18B0
:102000001B78DBB20A2B01D1BB690EE0FB690133FF
:10201000FB61FA697B689A42E0DB05E0054B092227
:102020001A6001235B4200E0BB691800BD4608B09E
:1020300080BDC046CC01002080B586B000AFF860FE
:10204000B9607A60FB68013B012B11D800237B61EA
:1020500009E0BB685A1CBA601B781800FFF74EFAFB
:102060007B6901337B617A697B689A42F1DB05E029
:10207000054B09221A6001235B4200E07B681800CF
:10208000BD4606B080BDC046CC01002003460B43D0
:102090007FD4002243088B4274D303098B425FD361
:1020A000030A8B4244D3030B8B4228D3030C8B428D
:1020B0000DD3FF22090212BA030C8B4202D3121273
:1020C000090265D0030B8B4219D300E0090AC30B48
:1020D0008B4201D3CB03C01A5241830B8B4201D3F5
:1020E0008B03C01A5241430B8B4201D34B03C01ADE
:1020F0005241030B8B4201D30B03C01A5241C30A56
:102100008B4201D3CB02C01A5241830A8B4201D3C6
:102110008B02C01A5241430A8B4201D34B02C01AB0
:102120005241030A8B4201D30B02C01A5241CDD255
:10213000C3098B4201D3CB01C01A524183098B42A0
:1021400001D38B01C01A524143098B4201D34B0189
:10215000C01A524103098B4201D30B01C01A5241EC
:10216000C3088B4201D3CB00C01A524183088B4273
:1021700001D38B00C01A524143088B4201D34B005C
:10218000C01A5241411A00D20146524110467047CE
:102190005DE0CA0F00D04942031000D340425340D3
:1021A00000229C4603098B422DD3030A8B4212D393
:1021B000FC22890112BA030A8B420CD389019211C5
:1021C0008B4208D3890192118B4204D389013AD002
:1021D000921100E08909C3098B4201D3CB01C01AD7
:1021E000524183098B4201D38B01C01A52414309EA
:1021F0008B4201D34B01C01A524103098B4201D3D8
:102200000B01C01A5241C3088B4201D3CB00C01A44
:10221000524183088B4201D38B00C01A5241D9D25C
:1022200043088B4201D34B00C01A5241411A00D2DD
:102230000146634652415B10104601D34042002BD9
:1022400000D54942704763465B1000D3404201B558
:10225000002000F005F802BD0029F8D016E770470D
:102260007047C046F0B5C64643025B0A4E024500C1
:102270004F00DA00C40F9C46700A904600B52D0E40
:102280003F0EC90FB6098C424BD0EA1B002A36DD3F
:10229000002F61D0FF2D00D1ADE08023DB041E4371
:1022A0001B2A00DCD3E001204346181A430100D466
:1022B0008CE080018709380002F0A0F805388740DB
:1022C000854200DCB6E02D1AB3483840430704D0FD
:1022D0000F230340042B00D00430430100D478E0E6
:1022E0006A1CFE2D65D08001430A9C46D2B263462B
:1022F000D0051843E407204380BCB846F0BD002A4F
:1023000035D07A1B002D00D0AFE04346002B00D122
:10231000A7E0531E012A00D12FE1FF2A69D01A003D
:10232000AAE0E91B002970DD002F37D0FF2D62D015
:102330008023DB041E431B2900DCB0E00120404465
:10234000430143D50135FF2D33D00123934A034088
:10235000400810401843B9E7002E00D183E0511E19
:10236000012A00D1D8E0FF2A45D00A0098E7FE27CD
:102370006A1C174200D086E0002D00D0B7E043462B
:10238000002B00D1F3E00022002EB0D0981B4301B7
:1023900000D4FAE043460C00F01A97E7002E00D173
:1023A000C8E04A1E012900D1AEE0FF2923D0110068
:1023B000C1E70023FF229C4699E7FE216A1C1142D7
:1023C00077D0FF2AF5D0150046447008430700D0A7
:1023D0007EE7C308FF2D0ED05B025B0A9C46EAB283
:1023E00085E7002E07D08022D203134203D010428B
:1023F00001D10C000300002BDBD08020C003184368
:102400004002430A9C46FF2271E70029D5D07A1B7F
:10241000002D60D14346002B24D0531E012A73D0D7
:10242000FF2AE7D01A001B2A00DC85E001203D00CE
:10243000801985E720233A00451B38000135EA4022
:102440005D1BA840431E9841002510433EE7202312
:1024500030009B1A31009840D140431E98410843F8
:1024600022E70C0003001500B4E7FF2FC1D0802342
:102470004046DB04184380461B2A51DD01200C0036
:102480003D00301A12E743469F1B7B012BD4002FDF
:1024900000D010E70023002400229C4627E72023D9
:1024A00032003000CA40591A8840431E98411043F8
:1024B00045E7002D4AD14346002B63D00022002E71
:1024C00000D114E730004044430100D47EE7324B92
:1024D000013518407AE7FF2F8CD080234146DB047A
:1024E000194388469FE743460C00F71AE3E6424645
:1024F000002A00D075E7002E00D07AE78023DB03A6
:1025000000249C46FF22F2E63000404401254301AE
:1025100000D45BE7022518E743460125981BC5E672
:10252000202344464046D4409A1A9040431E984186
:102530002043A4E70D004DE7202341464046D1400B
:102540009A1A9040431E9841084370E74246002A79
:1025500000D14FE7002E00D14DE78022D203134275
:1025600000D148E7104200D045E7030043E7002EC2
:1025700090D00C0084460022B9E643460C00F01AC5
:10258000013593E684460022B1E6002800D01DE71D
:10259000002300249C46AAE6FFFFFFFBFFFFFF7D10
:1025A000F0B54F464646D6464502C0B547000C1C1E
:1025B0006D0A3F0EC60F002F00D170E0FF2F00D133
:1025C00075E0EB008025ED041D43002399469A46F3
:1025D0007F3F6002430A984663001B0EE40F002B06
:1025E0004ED0FF2B46D04246D0008022D204024378
:1025F000904600227F3B3100FF1A4B466140C9B232
:1026000013430F2B00D9B5E06E489B00C3589F467B
:10261000002398462600454692465346022B00D199
:1026200089E0032B00D19EE0012B18D03B007F33C3
:10263000002B69DD6A0704D00F222A40042A00D04B
:1026400004352A0103D5604B1D403B008033FE2B2F
:1026500000DD70E0AD016D0AD8B202E00E0000208E
:102660000025C0052843F6073043E0BCBA46B14612
:10267000A846F0BD4346002B3FD10222FF3F03E0B6
:102680004346002B2DD1012231004B466140C9B297
:1026900013430F2B34D84D489B00C3589F46002D41
:1026A00013D104239946033B00279A4691E7002D56
:1026B00005D108239946063BFF279A4689E70C2354
:1026C0009946093BFF279A4683E7280001F096FECA
:1026D0007627431F9D4000237F4299469A463F1A22
:1026E00077E7404601F08AFE4246431F9A40762330
:1026F0005B4290461B1A00227DE7FF2303227AE704
:102700000E00FF200025ACE70120C01A1B28A6DC24
:102710009E372A00BD40C2406B1E9D4115436B078A
:1027200004D00F232B40042B00D004356B0144D57B
:102730000120002595E7FF20002592E7802500264F
:10274000FF20ED038DE7002398468020C00305425B
:1027500009D04346034206D1454605436D02260093
:10276000FF206D0A7DE78020C00305436D02FF2036
:102770006D0A76E742466B015001834219D21B2253
:102780000025013F01261C006D005B00002C01DBD1
:10279000984201D81B1A3543013A002AF3D15A1E38
:1027A00093411D433B007F330E00002B00DD41E7CA
:1027B000AAE71A2201251B1AE4E7AD0100206D0AE1
:1027C0004FE7C04670610008FFFFFFF7B0610008E7
:1027D00041024200C30F490A0020120E7E2A03DD87
:1027E0009D2A02DD094A98187047802000040143A1
:1027F000952A07DC9620821AD1404842002BF3D15B
:102800000800F1E7963A9140F7E7C046FFFFFF7FE7
:10281000F8B5002813D0C317C6185E40C40F3000A7
:1028200001F0ECFD9E2305001B1A962B0FDC0828F7
:1028300001DD083DAE407602760AD8B202E00024FF
:1028400000200026C0053043E4072043F8BD992B43
:102850000CDD05223100121AD1400A0001003000BF
:102860001B318840411E884102431600052D12DCB1
:1028700031000D4F3940720709D00F203040042835
:1028800005D004314A0102D59F2339405B1B8901E1
:102890004E0AD8B2D6E76A1F96403100024F39403F
:1028A0007207F4D0E9E7C046FFFFFFFBF0B54F46E3
:1028B0004646D6460D000400C0B51F00110028038F
:1028C000620F400A10437A00520DE3003C03914628
:1028D000640AFA0F4F0F6E0027439246B846760DF2
:1028E000ED0FC900954200D199E04C46341BA44637
:1028F000002C00DC7CE04A46002A00D1B8E0C54A42
:10290000964200D11CE180223C0012041443A046F0
:102910006246382A00DD61E11F2A00DDCCE1644611
:102920002022121B444694400F00A1466446914069
:10293000E7404C464A1E91413C434246214364468F
:10294000E240801A5C1AA3429B415F42C71B3B02D4
:1029500000D4D0E07F027F0A002F00D1FFE03800D2
:1029600001F04CFD01000839202322005B1A8F4042
:10297000DA408C401743B14200DAFFE0891B4B1C60
:102980001F2B00DDA8E020223900D21A200094403D
:102990009140D840621E9441DF40002601430C4321
:1029A000630709D00F232340042B05D0231DA34226
:1029B000A44164423F191C003B0200D49EE0954BA9
:1029C00001369E4200D1B7E0934AE40817407B07E6
:1029D00071057F0223433F0B4A0D12053A43ED0771
:1029E0002A4318001100E0BCBA46B146A846F0BD23
:1029F000002C4BD04C46A41BA446002E00D023E153
:102A000004001C4300D1AFE16246541E012A00D1EC
:102A100015E2804DAC4500D1C8E1A4461BE14A4611
:102A2000B21A9446002A00DCACE04A46002A43D0A1
:102A3000784A964200D1AFE180223C001204144350
:102A4000A0466246382A67DC1F2A00DC5FE1474661
:102A5000203AD7406246202A05D064464022121B05
:102A60004446944021434A1E91410C003C4357E0A8
:102A70003A000A4300D105E12200013A012C00D1BD
:102A800082E1644CA4455BD0944641E7634C771CDB
:102A9000274200D0C4E004001C43002E00D069E1AE
:102AA000002C00D1BFE144460C4300D0D0E14207E6
:102AB000DB081343C00829E03A000A4300D170E163
:102AC00062466446013A012C00D1E0E0514CA44535
:102AD00000D161E19446B4E73A001F39CA401100C1
:102AE000202B03D04022D31A9F403C43631E9C41BD
:102AF000002700260C43630700D053E7B446E408E0
:102B00007B072343F808434A94451DD062460703D8
:102B100052053F0B520D60E744460C43621E944140
:102B2000E4189C429B415F423F183B02E3D5394B7E
:102B300001369E4200D0B5E03200002700234CE76A
:102B40004207DB081343C0081A00024300D1E1E149
:102B500080273F0307433F032E4A3F0B3DE72000FA
:102B600001F04CFC010018311F2900DCFCE608389C
:102B7000844027000024B14200DBFFE6264A761A93
:102B800017400DE7002A2FD04A46921B9446002E8C
:102B900000D1ADE01F4A914500D10FE1802212041F
:102BA00010436246382A00DD0FE11F2A00DD80E174
:102BB000644620221E00121B674604009340944086
:102BC000FE405A1E9341F84034431C43804464182D
:102BD0008C42BF417F424E464744A6E742460A43E5
:102BE00011004A1E9141ADE60C4C721C224200D0ED
:102BF000A1E002001A43002E00D0FAE0002A00D122
:102C000045E13A000A4300D046E14207DB0813439E
:102C1000C0087BE7FF070000FFFF7FFFFE07000003
:102C200047465C1AC21BA342BF417F42B946170008
:102C30004A46BF1A3A0200D58DE023003B4300D03C
:102C40008AE60020002561E7B44CA14500D1ADE043
:102C50008024240420436446382C3DDC62461F2C2B
:102C600000DDB7E020251E002D1B0400AB40AC406A
:102C7000D640D04042465D1EAB413443121A9046C6
:102C800023432CE04207DB081343C0083BE75C18F2
:102C90009C429B4140445B42C71801263B0200D442
:102CA00029E702269E4A63081740012214401C436C
:102CB000FB071C437F0873E64446203AD440624633
:102CC000202A05D067464022D21B47469740394309
:102CD0004A1E9141214335E60343581E8341CC1AD5
:102CE000A142BF4143467F4255464E46DF1B2EE67A
:102CF00002001A4300D1BDE062466446013A012C4D
:102D000000D1E5E0854CA44558D0944649E7644697
:102D10002022121B444694400F00A1466446914075
:102D2000E7404C464A1E91413C4342460C436146B3
:102D3000CA408018F4E6794CA24200D1FDE6591849
:102D400099429B4140445F42C719FC07490816005D
:102D50000C437F08CFE6CC1AA142BF4143467F42D5
:102D6000181A5546C71BF7E5C9087B0755460B439C
:102D7000F808C8E6002C00D081E043460B4315D18B
:102D8000802000250003E3E65C1AA3429B41C71B99
:102D90005B420126FF1ADAE54207DB081343C0084D
:102DA000D2E64207DB081343C008ACE6434642467E
:102DB000C9085B0755460B43D008C5E64346424663
:102DC0005B07C9080B43D008BEE603431C00631E23
:102DD0009C41FCE60200203CE24014006246202AAE
:102DE00003D04025AD1AA8400343581E8341234316
:102DF00075E7002AE2D03A000A43CDD04207DB084B
:102E000013438022C0081203104206D0FC0814426B
:102E100003D12000CB087A0713435A0FDB00520777
:102E2000DB08134390E643460B4300D109E74346D2
:102E30004246C9085B0755460B43D00866E6CC1AE4
:102E4000A14289413F1A4942554601267F1A7EE533
:102E500042465C1A871AA34292415242BF1A3A0272
:102E60003DD5CC1AA1428941434649421F1A5546D5
:102E70007F1A95E57B07C9080B43F80843E64446EB
:102E8000DB080C4330D142071343C0085CE67B07E4
:102E9000C9080B43F80839E65C189C429B41404442
:102EA0005B42C7183B0200D425E61D4B01261F409C
:102EB00021E60400203AD4406246202A04D0402271
:102EC0006646921B904003435A1E93411C437EE684
:102ED0005C188C428941404449424718DDE6230092
:102EE0003B4300D1ADE606E6440723438024C008F7
:102EF0002403204208D04246D608264204D1554633
:102F00003000CB0851070B435A0FDB00DB08520798
:102F1000134319E60023014A1F005EE5FF07000086
:102F2000FFFF7FFFF0B557464E464546DE46E0B50B
:102F3000814605000C03480092461F0085B0240B13
:102F4000400DCE0F002800D156E1D44B984200D15D
:102F500072E16B0FE4001C4380231B04234398465B
:102F6000CF4BED009B4600239946834400933C03DE
:102F70007B005046240B5B0DFF0F002B00D11FE19F
:102F8000C64A934200D162E1C549420F8C46E40033
:102F900059461443802263441204CB1A14439B46BF
:102FA000C200002033007B409A464B460F2B27D8A7
:102FB000BC499B00CB589F46B246009B022B16D0C3
:102FC000032B00D18EE2012B00D0D9E00023002496
:102FD000002552461B052343D2071343280019003E
:102FE00005B0F0BCBB46B246A946A046F0BD0024E1
:102FF0000025AA4BEDE7BA46A04615000090DCE795
:10300000444500D2C7E100D1C2E101235B429C46A6
:103010002E0040460025E3442302140E1C431B0CE3
:10302000994623041F0C120249460092019701F0B1
:10303000E1F902007A430B04310C804619438A42BD
:1030400007D901235B429C460919E0448C4200D811
:1030500007E2881A494601F0CDF909048C4631048B
:103060006646019A090C4243030031438A4204D95F
:103070000919013B8C4200D8EDE1881A424612043E
:103080001A4390464146009B0E041B0C1F000293FE
:10309000009B360C1B04190C0B007343120C7E436F
:1030A000039151437A431F0CBC4676186644B142E3
:1030B00003D9802149028C466244310C8A183104BC
:1030C0001E04360C8E19904202D312D1B54210D292
:1030D0004346591E009B9C4665441F009D429B41F0
:1030E0005B421B19C018844200D2A0E100D19BE1D1
:1030F0008846AE1BB542AD41801A6D42401B8442EA
:1031000000D1D5E1494601F075F9019A0B0442431B
:10311000310C050019438A4200D96CE1881A4946EE
:1031200001F068F9019A360442430904360C0300A1
:103130000E43B24200D953E10398B61A02002D049F
:103140001D43029F2B041B0C5A437B439C46290CB6
:103150004843130C844463447943984203D9802044
:10316000400284466144180C12041B04120C4118DE
:103170009B188E4200D2FFE000D1FAE001231D43EC
:10318000494A5A44002A00DCAAE06B0700D03DE11E
:10319000ED084346DB0106D54246444B1A409046B3
:1031A0008022D2005A44424B9A4200DD1FE7434638
:1031B0005B071D43434652055C02240B530D08E791
:1031C0005246224300D17BE0002C00D1FAE02000DF
:1031D00001F014F902000B3A1D2301009B1A52461C
:1031E0000839DA408C40144352468A40314B5844E7
:1031F0009B4683440020D5E64B462343984644D063
:10320000002C00D1CEE0200001F0F8F8010002000F
:103210000B391D235B1A49461000D94008388440F9
:103220000B004D462343984685402348831A9B460E
:103230000023994600939AE64B46234398461DD1B6
:1032400008239946063B0025834600938FE65246A5
:10325000224309D1022349461943184B89469C460B
:1032600000240220E3449DE603234A461A43134BFD
:1032700091469C4652460320E34493E60C2399462C
:10328000093BA0468346009371E604239946002338
:103290009B4601330025009369E6C046FF07000006
:1032A00001FCFFFFF0610008FF030000FFFFFFFECD
:1032B000FE070000F30300000DFCFFFF01F8FFFF15
:1032C0004946012319438946002401206AE6002368
:1032D00080249A4600258A4B24037AE601256D4214
:1032E00001239B1A382B00DD70E61F2B00DCBFE0AA
:1032F0001F2149428A1A4146D1400A00202B04D09E
:103300004146804B5B4499400D436B1E9D41072312
:103310002A431D0000241540134200D1D4E00F21A0
:1033200000231140042900D1CBE0111D91429241AC
:1033300052429B180A00190200D4C2E00123002463
:10334000002546E6802341461B03194208D01C4253
:1033500006D11C432403BA461500694B240B38E6FA
:103360008024434624031C432403B246644B240BAD
:103370002FE6002B00D103E7A619681EA64200D253
:103380008DE08E4200D2A3E000D1B3E00500F5E667
:10339000AA4200D939E64346DE0758086B081E43A7
:1033A000ED0739E6484601F029F801000200153121
:1033B00020321C2900DC2CE74B46083883400025CE
:1033C000984632E701F01AF803001A00153220304F
:1033D0001C2A00DC00E75446083B00229C4005E71D
:1033E0003619013BB44200D9A6E6B24200D8A3E6A2
:1033F000831E3619A0E60919013D8C4200D98DE6DD
:103400008A4200D88AE6851E091987E60F232B40D9
:10341000042B00D1BCE605235B42AB429B41043543
:103420005B42ED089844B4E6AF4200D960E68242C0
:1034300004D800D05CE6AE4200D859E602235B42D5
:103440009C46009BE0449C4665449D429B415B42F8
:103450001B19C0184DE68A4200D80EE6831E0919D2
:103460000BE68A4200D8F4E5831E98460919F0E578
:103470002549280059448D4042468A40691E8D41A5
:103480004146D840D94002432A430B00510700D19E
:1034900051E70F211140042900D046E74BE7050012
:1034A0008E4200D06AE6009A934200D066E667E654
:1034B000164A5A44002A00DC10E7012300259844EC
:1034C00067E65D075B021C0BD2080023154380E50D
:1034D0000098023D42008242BF417F423C193619AA
:1034E0000092DDE78024434624031C432403044B5D
:1034F000240B6EE5009A9A42EAD30500D3E7C04652
:10350000FF0700003E0400001E040000FF0300004F
:10351000F0B557464E464546DE46E0B598460C03A4
:103520004B000600924687B0240B5B0DCF0F002B9B
:1035300000D15CE1D94A934200D175E1420FE40029
:103540001443802212041443D54AC50094466344B0
:103550000093002399469B46434642461E03D20FE2
:103560005B0050469046360B5B0D00D120E1CB4A04
:10357000934200D162E1CA49420F8C4600996344EC
:10358000F6008C46164380229C4412046346164380
:10359000C200002000930099434601318C46494601
:1035A0007B4001930F2926D8BE4B890059588F467E
:1035B000434601933400150083465B46022B16D028
:1035C000032B00D103E2012B00D0CDE00022002428
:1035D0000025019B12052243DB071A432800110036
:1035E00007B0F0BCBB46B246A946A046F0BD0024D9
:1035F0000025AA4AEDE7280C2D042D0C2B00110CF8
:103600001204120C5343984613002F00434399466B
:103610004F434F44BB4647460B003F0CBA4643431B
:10362000DA440293D14504D980277F02B9464B443E
:10363000029353461B0C9B4653461F0443461B04F0
:103640001B0C98463B0043440493330C3604360C61
:103650009846330043439946434643432F009A46D6
:10366000434677435D43380C4D444519A94503D97A
:1036700080235B029946CA443F04280C3F0C2D046A
:10368000ED19270C2404240C0300200050437A4336
:1036900091463A0053440593030C9A464A436143CA
:1036A00049445144AB44894503D980235B02994680
:1036B0004A4400040B0C000C090409182000994628
:1036C000434670435C437E435F43030C9846A41912
:1036D00044444A440397A64204D980235B02984697
:1036E000474403972304029E9A46059B5E449846EE
:1036F000AE42AD4176188E4289410004000C504420
:1037000040446D424719B846934649428946C344EE
:10371000D94498428041A845AD419345924189459D
:1037200089416D4240422843240C524249420A4397
:10373000039B00198018C7184B46DC0D049B7502CB
:103740001D436A1E95414B46F60D7F0235435A02D2
:103750003C431543FB0100D41CE101216A080D40E4
:103760001543E207154364084F496144002900DC12
:10377000B0E06B0709D00F222A40042A05D02A1D89
:10378000AA42AD416D4264191500E30104D58021C0
:10379000464AC90014406144454A914200DD26E78B
:1037A0006207ED08640249051543240B4A0D10E732
:1037B0005246324300D17FE0002E00D1DCE03000E1
:1037C00000F01CFE02000B3A1D2301009B1A52461A
:1037D0000839DA408E40164352468A40009B3549EC
:1037E000181A03008C46634400200093D3E625009A
:1037F00005434AD0002C00D1B0E0200000F0FEFDCF
:10380000010002000B391D2310005B1A3100350046
:1038100008388440D94085400C432648831A0093D9
:10382000002399469B4697E60500254326D10822AA
:1038300000930223002491469B468DE65246009B4E
:10384000324310D1154900268C4663444946009303
:1038500002231943894602209DE65B460197022B0D
:1038600000D0ADE6C3E60D4A0320944663444A46C1
:10387000009303231A43914652468CE60C22009390
:103880000323050091469B4666E6042399460023E0
:103890000093013300249B465EE6C046FF0700000C
:1038A00001FCFFFF30620008FF030000FFFFFFFE86
:1038B000FE0700000DFCFFFF49460123194389461E
:1038C0000026012067E6002380240025434A019357
:1038D00024037EE60120401A382800DD76E61F2802
:1038E0005BDD1F2223005242511ACB4019002028D1
:1038F00003D03B4A6244944025436A1E95412A0006
:103900000A4307210D000024154011425BD00F210E
:1039100000241140042953D0111D9142924152427A
:10392000A4180A0023024BD501220024002550E6EA
:1039300080231B031C4209D01E4207D133431C03C2
:1039400043461500240B254A019342E680221203C8
:1039500014432403214A240B01973AE600F04EFD5C
:1039600001000200153120321C2900DC4BE7340035
:1039700008380025844050E700F040FD03001A009D
:10398000153220301C2A00DC1EE75646083B002278
:103990009E4023E7009B9C46E6E6124922006144D4
:1039A0002E008D408A40C640691E8D4132432A4315
:1039B000C4405307B6D00F2111400429ACD1B1E760
:1039C00065076402240BD2081543002201E6802219
:1039D000120314432403014A240BFAE5FF070000F5
:1039E0003E0400001E040000F8B557464E4645460A
:1039F000DE46E0B51E0017004A000B03520D5B0ABD
:103A00009046420F1A43CD0FCD4C3103C30094466C
:103A100070007A0F490AFF009A46B946400DF60F2A
:103A20001143A04200D1B1E001225640B346B54255
:103A300000D188E04246121A002A00DCAEE00028DD
:103A400000D1C1E0BE48804500D151E18020000492
:103A50000143382A00DD7BE11F2A00DDEEE1202052
:103A60003E00801A0C00D640D14087406246844018
:103A7000521A781E8741944634432743DC1BA342E5
:103A80009B4162465B42D31A99464B461B0200D4C7
:103A900018E14B465802430A99464B46002B00D189
:103AA00037E1484600F0AAFC010008392023220033
:103AB00048465B1ADA4088408C40434610438845AC
:103AC00000DD36E1C91A4B1C1F2B00DDEAE0202285
:103AD0002600D21A01009440DE40D84000239140D5
:103AE000621E94418146984631430C43630709D0D6
:103AF0000F232340042B05D0231DA342A44164427D
:103B0000A1441C004B461B0200D4DEE041468C4B16
:103B10000131994200D1E7E04B468A48E40803406E
:103B2000180049055B07400223434A0D040B1205A8
:103B3000ED0722432A4318001100F0BCBB46B246F1
:103B4000A946A046F8BD4246121A002A52DD0028B6
:103B500000D19CE0A04500D1CAE0802000040143D0
:103B6000382A00DD49E11F2A00DC97E110000E0031
:103B70002038C640202A04D04020821A91400F43AA
:103B8000B9464C46621E944134433AE10A003A4336
:103B900028D0B346B5422BD06B4A4244002A5DD0B0
:103BA00042464446821A002C00D0F5E065461D438B
:103BB00000D19CE1551E012A00D1FBE1604CA242DC
:103BC00000D1BDE12A00F0E00800384300D1C3E095
:103BD000501E012A00D1A8E1594CA24200D187E031
:103BE000020036E701225640B346B54200D021E735
:103BF000554A4244002A00D1B5E042464446821A62
:103C0000002C00D138E14E4EB04200D1DEE18026DA
:103C1000644636043443A446382A00DD96E11F2A60
:103C200000DD24E22026B41AA24664465646B4407B
:103C3000A1461C004E46D440264334005646B340AD
:103C40005E1EB3411C436346D340C918E419BC420D
:103C5000BF417F42B94680468944D8E040463B4C4C
:103C60000130204200D0B4E04046002800D044E1BA
:103C70006046184300D190E10800384300D0AAE123
:103C80006146DB0849070B436146CC0827E0080082
:103C9000384361D0501E012A00D139E1A24227D019
:103CA00002005DE702001F39CA401100202B03D03B
:103CB0004022D31A98400443631E9C410023994636
:103CC00098460C43630700D012E74B464A46E40887
:103CD0005B072343D408424619498A420ED0240385
:103CE0005205240B520D22E70A00002400231EE790
:103CF000DB086246520713436246D4081A00224387
:103D000000D1FCE180221203144324030C4A240B4B
:103D10000DE7200000F072FB010018311F2900DCC4
:103D2000C4E608388440434620000024884500DC6F
:103D3000C8E6044A5B1A104098468146D6E6C0465B
:103D4000FF070000FFFF7FFF01F8FFFFFE070000F5
:103D50000F437A1E974191E66146DB0849070B4302
:103D60006146CC08B8E74046D34C0130204200D031
:103D7000A2E04046002800D001E16046184300D18F
:103D80005EE10800384300D05FE16146DB08490787
:103D90000B436146CC08A2E7C84DA84200D1CFE052
:103DA000802564462D042C43A446382A56DC1F2A5D
:103DB00000DDD1E020251E00AD1A6446AB40AC40CA
:103DC000D6405D1EAB41344323436446D440091BB7
:103DD00049E06046DC1B461AA342804140428146CE
:103DE00030004E46801B8146000276D44B4623436A
:103DF00000D052E60024002571E739430C00621E12
:103E00009441E4189C429B415B42634499464B4673
:103E10001B0200D456E701239C46A84BE04498457A
:103E200038D04B46A64801220340180063081440CE
:103E30001C43C3071C434308994657E610000E0075
:103E40002038C640202A04D04020821A91400F43D7
:103E5000B9464F467A1E974137430FE662461A43EA
:103E600013005A1E9341FC1AA742BF417F42CB1B4D
:103E700099465D46804608E666461E4300D1BEE090
:103E8000561E012A00D109E18C4CA24200D119E151
:103E90003200C1E642460024002348E620200C0000
:103EA000801A3E0087408440D640781E8741D1402A
:103EB00034433C438C44A4E7804A904200D1E9E07B
:103EC000DF199F429B4161445B42C918CC077F08C0
:103ED0004B08994680463C43F4E6FC1AA742BF4192
:103EE00063467F42C91ACB1B99465D46D5E5FF085C
:103EF0004B075D463B43CC08EEE662461A4300D0D2
:103F000082E00B003B431BD1802400252403F9E60B
:103F1000DC199C429B41614489465B4299444B4673
:103F20001B0244D401239846CCE6DC1B6246A34224
:103F30009B41511A5B42CB1A994601239846A4E54E
:103F4000FF084B075D463B43CC08D7E662461A4361
:103F50001400631E9C4179E615006446203DEC4048
:103F6000A046202A05D040256446AA1A944023433F
:103F70009A465446631E9C414346234373E7624678
:103F80001A4323D00A003A4300D0A0E06246DB087F
:103F9000520713436246D408B0E60B003B4300D1FE
:103FA00028E7FF084B075D463B43CC0897E6022312
:103FB000984636E7FC1AA742BF4163467F42C91ABA
:103FC000CB1B994601235D4698465EE54B07FF08EB
:103FD0003B43CC0892E6DC1B6046A342B641401A44
:103FE0007642801B8146000260D5FC1AA742BF4181
:103FF00063467F42C91ACB1B99465D4676E5FF08AA
:104000004B073B43CC0867E60A00DB083A4300D184
:104010006FE66246520713436246D40880221203B9
:10402000144207D0C808104204D15D460400FB08C2
:1040300049070B435A0FDB00DB08520713435DE6C9
:104040004B07FF083B43CC0849E6DC199C429B41E7
:10405000614489465B4299444B461B0200D431E6D9
:104060004A46174B1A400123914698462AE6160005
:104070006446203EF440A046202A05D040266446EF
:10408000B21A944023439A465446631E9C414346C9
:104090001C43DBE502000024002348E5DC19BC4298
:1040A000BF41614489467F42B94438E74B462343C8
:1040B00000D19FE606E6C046FE070000FF070000AD
:1040C000FFFF7FFFFF084B073B43CC0816E6624625
:1040D000DB08520713436246D408802212031442BD
:1040E00007D0C808104204D15D460400FB08490708
:1040F0000B435A0FDB005207DB081343FEE5002396
:10410000014A1C0013E5C046FF0700000A0030B555
:10411000134C530009030500090B00205B0DD20F5F
:10412000A34204DD0F48834202DD0F4BD01830BD9F
:104130008020400301430D48C01A1F2808DD0C48A9
:10414000C31AD9400B005842002AF0D11800EEE7FC
:10415000084CC540A446634499400B002B43F2E74A
:10416000FE0300001D040000FFFFFF7F330400007A
:1041700013040000EDFBFFFF70B5002816D0C31735
:10418000C5185D40C40F280000F038F9114A121A12
:104190000A2816DC03002E0015339E400B23181A44
:1041A000C54052052D032D0B530D03E000240023C1
:1041B000002500261B052B43E4072343300019008C
:1041C00070BD0B38854052052D0300262D0B530D75
:1041D000F0E7C0461E04000002004B00F0B55B0D86
:1041E0000C033D4E640A400F5F1CC90F0443D50009
:1041F00037420AD039481E18FE2E16DDFF20002453
:10420000C0052043C9070843F0BD002B06D12C434D
:1042100026D005229201540AD8B2F1E72543EDD009
:104220008020C0030443FF20EAE7002E1BDD92013B
:10423000531E9A41E4006D0F22432A43530748D08E
:104240000F231340042B00D004328023DB041340DF
:104250003FD0701CFE2ED1D09201540AC0B2CFE7DD
:1042600000200024CCE73200173222DB802000043B
:1042700020431E24A41B1F2C1DDD02225242961B2C
:104280000200F2401600202C04D0154A94466344E4
:10429000984005432A00531E9A4132430026530793
:1042A000CED180241300E404012023402242D3D144
:1042B000B0E70023ADE70B4A94462A00E240140021
:1042C0002A0063449A409840551EAA410243224363
:1042D000E4E733009EE7C046FE07000080FCFFFFD6
:1042E000A2FCFFFF82FCFFFF002243088B4274D335
:1042F00003098B425FD3030A8B4244D3030B8B42E7
:1043000028D3030C8B420DD3FF22090212BA030CEF
:104310008B4202D31212090265D0030B8B4219D3D0
:1043200000E0090AC30B8B4201D3CB03C01A5241F0
:10433000830B8B4201D38B03C01A5241430B8B4238
:1043400001D34B03C01A5241030B8B4201D30B0321
:10435000C01A5241C30A8B4201D3CB02C01A524148
:10436000830A8B4201D38B02C01A5241430A8B420B
:1043700001D34B02C01A5241030A8B4201D30B02F4
:10438000C01A5241CDD2C3098B4201D3CB01C01A0E
:10439000524183098B4201D38B01C01A5241430918
:1043A0008B4201D34B01C01A524103098B4201D306
:1043B0000B01C01A5241C3088B4201D3CB00C01A73
:1043C000524183088B4201D38B00C01A52414308EB
:1043D0008B4201D34B00C01A5241411A00D2014610
:1043E000524110467047FFE701B50020FDF738FF46
:1043F00002BDC0460029F7D076E770471C21012393
:104400001B04984201D3000C10391B0A984201D3B7
:10441000000A08391B09984201D30009043902A295
:10442000105C40187047C0460403020201010101FC
:10443000000000000000000010B50A22002100F07A
:104440001DFD10BD10B50A23002200F007FD10BDB0
:10445000F7B58B8905000C001A075FD44A68002A5B
:1044600004DC0A6C002A01DC0020FEBDE76A002F94
:10447000FAD0002280212E682A601A0049010A40E1
:104480000B4234D0606DA3895B0706D56368C01A00
:10449000636B002B01D0236CC01A0200216A002339
:1044A0002800E76AB847A189431C06D12B681D2B59
:1044B00031D82C4ADA40D3072DD500236360236915
:1044C0002360CB0405D5431C02D12B68002B00D1FF
:1044D0006065616B2E600029C6D023004433994289
:1044E00002D0280000F004FA00206063BDE7012339
:1044F0002800216AB847431CC5D12B68002BC2D0C5
:104500001D2B01D0162B01D12E60ADE74023A289CF
:104510001343A381A9E740230B43FAE70F69002F58
:10452000A2D00A680F60D21B019200229B0700D123
:104530004A69A260019B002B00DC95E73A00280045
:10454000019B216AA66AB047002806DC40230120AF
:10455000A28940421343A38187E7019B3F181B1A9E
:104560000193E7E7010040200B6970B505000C00DE
:10457000002B02D10025280070BD002804D08369DB
:10458000002B01D100F0C8F8144B9C421BD16C6881
:104590000C22A35E002BEDD0626ED20704D49B05E3
:1045A00002D4A06D00F094F928002100FFF750FF1D
:1045B000636E0500DB07DED4A3899B05DBD4A06D09
:1045C00000F08CF9D7E7064B9C4201D1AC68DFE7DD
:1045D000044B9C42DCD1EC68DAE7C04690620008EC
:1045E000B062000870620008010010B5002805D113
:1045F000054B0649186800F046F910BD044B1868D1
:10460000FFF7B2FFF9E7C046D0620008694500082D
:1046100004000020002310B50400036043608360A1
:10462000818143661900C28103614361836108226D
:104630005C3000F054F9054B24626362044BA362C2
:10464000044BE362044B236310BDC046A54C000835
:10465000D14C0008094D0008354D000810B502493D
:1046600000F011F910BDC04669450008436E10B551
:10467000DB0705D483899B0502D4806D00F028F9FF
:10468000002010BD436E10B5DB0705D483899B0560
:1046900002D4806D00F022F9002010BD70B56825AD
:1046A0004A1E55430E002900743100F08DF9041E96
:1046B00008D000212A00016046600C30A0606832FA
:1046C00000F00DF9200070BD10B5024B1868FFF71F
:1046D000C5FF10BDD062000810B5024800F0F8F820
:1046E00010BDC046D601002010B5024800F0F6F813
:1046F00010BDC046D601002010B5024800F0E8F811
:1047000010BDC046D701002010B5024800F0E6F801
:1047100010BDC046D701002013B50400FFF7ECFF21
:10472000A369002B02D0FFF7EFFF13BDA364E3647E
:104730002365134B134A1B68A2620193A34201D164
:104740000123A361200000F01FF86060200000F04A
:104750001BF8A060200000F017F800220421E060A0
:104760006068FFF757FF01220921A068FFF752FF99
:1047700002221221E068FFF74DFF0123A361D2E777
:10478000D06200085D460008F8B50700FFF7A4FFF7
:104790001F4B1E68B369002B02D13000FFF7BCFF2E
:1047A0004836B4687368013B04D53368002B22D0C7
:1047B0003668F6E70C22A55E002D1AD12000154BB5
:1047C0005830E360656600F07FF8FFF78DFF20004A
:1047D000082229002560A560656025616561A561E5
:1047E0005C3000F07CF86563A563A564E564200097
:1047F000F8BD6834D7E704213800FFF74FFF041EE7
:104800003060D5D1FFF770FF0C233B60EFE7C04667
:10481000D06200080100FFFF10B5FFF75DFF034BFA
:104820000349186800F014F810BDC04604000020C9
:104830006D46000810B5044B0449186800F008F8EC
:10484000FFF752FF10BDC046040000208546000857
:10485000F7B54830040000260191A5686768013F5C
:1048600004D52468002CF8D13000FEBDAB89012BA3
:1048700007D90E22AB5E013303D02800019B984775
:1048800006436835EBE7F7B5040006000027019101
:1048900048346368A5680093009B013B009304D5EE
:1048A0002468002CF5D13800FEBDAB89012B08D956
:1048B0000E22AB5E013304D029003000019B9847E3
:1048C00007436835E8E7704770477047704770479F
:1048D0007047012070470120704770477047030000
:1048E0008218934200D1704719700133F9E7000034
:1048F00070B50500002910D00C1F2368002B00DACA
:10490000E418280000F04AFC1D4A1368002B05D16A
:1049100063601460280000F049FC70BDA34208D910
:10492000216860188342F3D118685B6841182160E0
:10493000EEE71A005B68002B01D0A342F9D9116899
:104940005018A0420BD120680918501811608342FA
:10495000E0D118685B68411811605360DAE7A04243
:1049600002D90C232B60D5E721686018834203D15C
:1049700018685B684118216063605460CAE7C046EC
:10498000DC01002070B50F4E0D00316804000029D5
:1049900002D100F039F930602900200000F034F92C
:1049A000431C0AD00323C51C9D43A84207D0291AE3
:1049B000200000F029F9431C01D101256D42280097
:1049C00070BDC046E0010020F7B50322CB1C934325
:1049D000083306001F000C2B32D20C27B94231D805
:1049E000300000F0DBFB324D2B681C00002C2ED178
:1049F00039003000FFF7C6FF0400431C1ED12C68AD
:104A00002500002D4AD123682900E31830000193C6
:104A100000F0FAF8019B834243D123680337FF1A61
:104A200003239F4308370C2F00D20C273900300096
:104A3000FFF7A8FF431C34D02368DF19276013E079
:104A4000002BCBDA0C23002533602800FEBD226842
:104A5000D11B20D40B2917D9E2192760A34211D109
:104A60002A606368116053603000250000F09EFBEF
:104A700007220B35231D9543EA1A9D42E5D05B1BA7
:104A8000A350E2E75A60ECE76268A34201D12A60D2
:104A9000EAE75A60E8E723006468A7E72C006D683E
:104AA000AFE70C233000336000F080FBCDE7C04659
:104AB000DC0100200EB417B5041E04D08369002B5E
:104AC00001D1FFF729FE06AB2000059AA1680193EA
:104AD00000F08CFD1EBC08BC03B018470FB40B4B94
:104AE00013B51C68002C05D0A369002B02D120004F
:104AF000FFF712FE05AB2000049AA168019300F0B5
:104B000075FD16BC08BC04B01847C0460400002060
:104B100070B505000E00002804D08369002B01D178
:104B2000FFF7FAFDAB69AC68002B02D12800FFF754
:104B3000F3FD2D4B9C4222D16C68636EDB0705D4DC
:104B4000A3899B0502D4A06DFFF7C2FEA3891B07B2
:104B500002D52369002B29D12100280000F00EFA8C
:104B6000002823D001256D42636EDB0705D4A3899D
:104B70009B0502D4A06DFFF7B1FE280070BD1B4B52
:104B80009C4201D1AC68D8E7194B9C42D5D1EC6866
:104B9000D3E70136A360002B04DAA2699A4216DC3F
:104BA0000A2914D023685A1C22601970A36831782E
:104BB000013B0029EDD1A360002B0FDA2800220071
:104BC0000A3100F067F90A25431CCDD1CAE722005B
:104BD000280000F05FF9431CE8D1C3E70A252368E9
:104BE0005A1C22601D70BFE790620008B062000886
:104BF0007062000810B5034B01001868FFF788FFCA
:104C000010BDC04604000020002370B5064D04000E
:104C100008002B60FDF7A2F9431C03D12B68002B81
:104C200000D0236070BDC046CC0100200CB400B59C
:104C30009DB00291069109491EAB07910491084964
:104C400004CB059102A9019300F09AFB0023029A7C
:104C500013701DB008BC02B01847C046FFFFFF7FAD
:104C60000802FFFF0EB400B50B499CB01DAB0290CB
:104C70000690079104910948094904CB0591006801
:104C800002A9019300F07CFB0023029A13701CB070
:104C900008BC03B01847C046FFFFFF7F0400002098
:104CA0000802FFFF70B50C000E25495F00F066FF9B
:104CB000002803DB636D1B18636570BDA389024A7E
:104CC0001340A381F9E7C046FFEFFFFF00207047C4
:104CD000F8B51F008B8905000C001600DB0505D513
:104CE0000E23C95E0022022300F0D8F9A389054AE9
:104CF00028001340A38132000E23E15E3B0000F048
:104D000029F9F8BDFFEFFFFF70B50C000E25495FD4
:104D100000F0C4F9A389421C03D1054A1340A381C2
:104D200070BD802252011343A3816065F8E7C0463D
:104D3000FFEFFFFF10B50E23C95E00F097F910BD1D
:104D4000F0B587B01E00059001910292012B45D06D
:104D50000B00242E42D83F4A082194461A00604690
:104D600014780133005D1D0007000F400842F5D1A3
:104D70002D2C3AD101271C78951C002E65D0102EC1
:104D800009D1302C07D120222B789343582B57D1AF
:104D900010266C780235304B3100FB181800039355
:104DA000FFF728FB00230122844618000491524299
:104DB0002100303909291DD80C00A64228DD002B1E
:104DC00024DB1300844506D302D10499A14202DBFF
:104DD0000123704320182C780135E9E700F058F9D9
:104DE00016230360002007B0F0BD2B2CC5D11C7822
:104DF000951CC2E721004139192901D8373CDCE76D
:104E000021006139192903D8573CD6E71300E2E79E
:104E1000002B09DA2223059A03981360029B002BCA
:104E2000E1D06B1E019307E0002F00D04042029AB0
:104E3000002AD8D0002BF4D1029B019A1A60D2E745
:104E40003024002EA7D10836A5E7302C9BD00A26A7
:104E5000A1E7C046D5620008FFFFFF7F10B5FFF74E
:104E60006FFF10BD10B513000A0001000248006872
:104E7000FFF766FF10BDC0460400002010B5130008
:104E80000A00010002480068FFF75AFF10BDC04643
:104E900004000020F8B505000E001400002804D01E
:104EA0008369002B01D1FFF737FC224B9C422ED1A6
:104EB0006C68A369A360A3891B0732D52369002B03
:104EC0002FD023682269F7B2981A6369F6B2834239
:104ED00005DC21002800FFF747FB002827D1A36845
:104EE0000130013BA36023685A1C22601F70636974
:104EF000834204D0A389DB0707D50A2E05D1210000
:104F00002800FFF731FB002811D13000F8BD0A4B13
:104F10009C4201D1AC68CCE7084B9C42C9D1EC68FB
:104F2000C7E72100280000F029F80028C9D0012691
:104F30007642EAE790620008B062000870620008FA
:104F400010B5034B0A0001001868FFF7A3FF10BD5E
:104F50000400002070B50400080011001A000023AE
:104F6000054D2B60FDF768F8431C03D12B68002B1F
:104F700000D0236070BDC046CC010020374B70B517
:104F80001D6806000C00002D05D0AB69002B02D176
:104F90002800FFF7C1FB324B9C420FD16C680C23F9
:104FA000E25E93B211072DD4D90611D40923012052
:104FB000336037331343A381404270BD294B9C4279
:104FC00001D1AC68EBE7284B9C42E8D1EC68E6E7FE
:104FD0005B0713D5616B002908D023004433994245
:104FE00002D03000FFF784FC002363632422A389EE
:104FF0009343A38100236360236923600823A2896C
:105000001343A3812369002B0BD1A0218022A38904
:10501000890092000B40934203D02100300000F041
:1050200079F80C22A35E01201A0099B202400342D3
:105030000FD00022A26062695242A2610020226960
:105040008242BAD10A06B8D540221343A38101385F
:10505000B3E7880700D46269A260EFE7040000208C
:1050600090620008B062000870620008002370B50A
:10507000064D040008002B60FCF7BFFE431C03D163
:105080002B68002B00D0236070BDC046CC010020EF
:10509000014B18687047C0460400002070B504003A
:1050A000080011001A000023054D2B60FCF700FFDB
:1050B000431C03D12B68002B00D0236070BDC04679
:1050C000CC01002070B50E001D000E23C95E140037
:1050D00096B0002908DA0C22B35E00222A601B0673
:1050E00011D48023DB000FE06A4600F05BFD00284E
:1050F000F1DBF02301991B021940054BC9184B4203
:1051000059412960EDE740230020236016B070BDAF
:1051100000E0FFFFF7B502268B8905000C00334243
:1051200006D0230047332360236101236361F7BD69
:105130006A4601ABFFF7C6FF009907002800FFF79A
:1051400043FC002808D10C22A35E9A05EFD4032269
:1051500093431E43A681E4E70F4BAB628023A289F1
:1051600020601343A381009B20616361019B002B9E
:105170000DD028000E23E15E00F08EFE002806D040
:105180000322A38993431A0001231343A381A08917
:105190000743A781CBE7C0465D46000810B502482B
:1051A000FFF796FB10BDC046D501002010B50248A0
:1051B000FFF794FB10BDC046D5010020F0B58E6806
:1051C00085B007000C00039201939E423CD89023C7
:1051D0008A89DB001A4234D00969236860695B1A46
:1051E000029303234343DD0FED18019B0298013323
:1051F0001B186D10AB4200D91D00530532D5290094
:105200003800FFF7E1FB061E09D10C233B60402369
:105210000120A28940421343A38105B0F0BD029A48
:10522000216900F056FEA389144A1A4080231343D3
:10523000A381029B2661F61826606561019EED1A26
:10524000A560019B9E4200D9019E3200039920680F
:1052500000F048FEA36800209B1BA36023689E19F2
:105260002660DAE72A00380000F04FFE061EE0D183
:1052700038002169FFF73CFBC7E7C0467FFBFFFF13
:10528000F0B5936887B00C0017000290002B65D032
:1052900013680393002305930193019B002B2DD0EA
:1052A000A6689E4249D89023A289DB001A4241D0C9
:1052B0000320216923685B1A049363694343DD0F6C
:1052C000ED18049B019801331B186D10AB4200D9F7
:1052D0001D00530546D529000298FFF775FB061EF1
:1052E00016D10C23029A012013604023A289404268
:1052F0001343A3810023BB607B6031E0039B1B68E9
:105300000593039B5B680193039B08330393C4E7F6
:10531000049A216900F0DDFDA389184A1A40802310
:105320001343A381049B2661F61826606561019EE4
:10533000ED1AA560019B9E4200D9019E320005999D
:10534000206800F0CFFDA368019A9B1BA36023682F
:105350009E19BB6826609B1ABB60CFD10020786085
:1053600007B0F0BD2A00029800F0CFFD061ED9D18B
:1053700021690298FFF7BCFAB3E7C0467FFBFFFF45
:10538000F0B5A1B003901D008B890F0016001B061D
:1053900011D50B69002B0ED14021FFF715FB3860AA
:1053A0003861002805D10C23039A0138136021B01D
:1053B000F0BD40237B61002308AC6361203363763A
:1053C0001033A376079535002B78002B01D0252BC1
:1053D00047D1AB1B0593B5420CD03200390003987E
:1053E000FFF7ECFE431C00D1AEE06269059B9446DA
:1053F000634463612B78002B00D1A5E001220023D8
:105400005242626004A9543252186E1C2360E36059
:10541000A3601370A36505223178544800F04EFD57
:10542000751C00281FD12268D30604D5532304A974
:105430005B1820211970130704D5532304A95B18A6
:105440002B21197033782A2B16D0350000210A2021
:10545000E3682A786E1C303A092A4ED9002911D106
:1054600017E00135B0E7414B2268C01A01238340A1
:1054700013432E002360CEE7079B191D1B6807917D
:10548000002B01DB0B9304E05B42E3600223134338
:1054900023602B782E2B0AD16B782A2B35D1079BD2
:1054A00002351A1D1B680792002B2BDB0993304E27
:1054B00003223000297800F001FD002806D04023A7
:1054C000801B83402268013513432360297806221C
:1054D00028486E1C217600F0F1FC00283CD0264BB9
:1054E000002B25D10722079B0733934308330793EB
:1054F0006369049A9B18636165E7434335000121A2
:105500009B18A6E701235B42D0E700230A201A007C
:105510000135636029786E1C3039092903D9002BC5
:10552000C5D00992C3E74243350001235218F1E781
:1055300007AB00933A002100104B039800E000BF36
:105540000490049B0133D3D1BB890D985B0600D432
:105550002DE7012040422AE707AB00933A002100E3
:10556000064B039800F0F8F9EAE7C046D563000857
:10557000DB630008DF63000800000000BD51000885
:10558000936810B5013B9360002B04DA9469A34241
:1055900007DB0A2905D01368581C10601970080031
:1055A00010BDFFF777FC0100F9E7F8B506000F0022
:1055B0001400D518AC4201D1002007E021783A0050
:1055C0003000FFF7DDFF0134431CF3D1F8BD9368D1
:1055D00010B51400002B02D11800536010BD00F06C
:1055E000F3FA0023A3606360F8E70000F0B5A1B010
:1055F00006000C001F000392002804D08369002BD2
:1056000001D1FFF789F88E4B9C421CD17468636E00
:10561000DB0705D4A3899B0502D4A06DFFF758F9D9
:10562000A3891B0702D52369002B1DD1210030005F
:10563000FFF7A4FC002817D0636EDB070DD501200F
:10564000404221B0F0BD7F4B9C4201D1B468DEE7FF
:105650007D4B9C42DBD1F468D9E7A3899B05EED44E
:10566000A06DFFF73BF9EAE7002308AD6B6120333B
:105670006B761033AB760797039F3B78002B01D0F6
:10568000252B4ED1039BFB1A0593039B9F420DD004
:10569000059B21003000039AFFF787FF431C00D1D0
:1056A000B5E06A69059B944663446B613B78002BC7
:1056B00000D1ACE001227B1C0393002352426A60BC
:1056C00004A9543252182B60EB60AB601370AB65C9
:1056D000039B052219785D4800F0F0FB039B5F1CDB
:1056E000002820D12A68D30604D5532304A95B18C7
:1056F00020211970130704D5532304A95B182B210B
:105700001970039B1B782A2B16D00021EB68039F8E
:105710003A78781C303A8446092A4FD9002911D1A9
:1057200017E00137A9E7494B2A68C01A01238340D3
:1057300013432B600397CBE7079B191D1B68079149
:10574000002B01DB0B9304E05B42EB60022313436D
:105750002B603B782E2B0AD17B782A2B37D1079BE5
:1057600002371A1D1B680792002B2DDB09930322B9
:105770003978374800F0A2FB002807D0344B2A685C
:10578000C01A40238340134301372B6039787B1CB8
:10579000062230480393297600F090FB002845D07C
:1057A0002D4B002B27D10722079B07339343083348
:1057B00007936B69049A9B186B615DE70A214B4361
:1057C00067469B180939A3E701235B42CEE7002314
:1057D0001A0001376B603978781C30398446092902
:1057E00003D9002BC3D00992C1E70A235A43674665
:1057F0005218093BEFE707AB009322002900300065
:10580000164B00E000BF0490049B0133D1D1636EBE
:10581000DB0705D4A3899B0502D4A06DFFF75EF8D2
:10582000A3895B0600D50AE70D980AE707AB00934A
:10583000220029003000094B00F08EF8E3E7C04653
:1058400090620008B062000870620008D56300082A
:10585000DB630008DF63000800000000AB550008B0
:1058600010B513000A00010002480068FFF7BEFEF1
:1058700010BDC04604000020F7B5150001938A68EA
:105880000B690C000090934200DA130022002B6099
:1058900043321278002A01D001332B6023689B0623
:1058A00002D52B6802332B602268062317001F40A5
:1058B0001A4227D0230043331B785A1E9341226893
:1058C000920630D4220001990098089E4332B047D6
:1058D000431C25D0062320682A68E1680025034080
:1058E000042B03D18D1AEB43DB171D40A3682269FB
:1058F000934201DD9B1AED180027BD4220D1002004
:1059000010E00137E3682A689B1ABB42D2DD22000F
:10591000012301990098089E1932B047431CF0D129
:1059200001204042FEBD3020E118433108702100C3
:105930005A1C45310978A218433202331170C1E76D
:105940002200012301990098089E1A32B047431C97
:10595000E6D00137D1E70000F0B58BB006920A001F
:1059600043320793059004920A7E0C00109B782A1C
:1059700007D8622A09D8002A00D1C1E0582A00D1EC
:105980008CE026004236327022E010006338152881
:10599000F7D800F0F1FA16001F00F6FFF6FFF6FF49
:1059A000F6FF1F00F6FFF6FFF6FFF6FFA800360031
:1059B0009A00F6FFF6FFB900F6FF3600F6FFF6FF95
:1059C0009E0026001A684236111D19601368337054
:1059D0000123A7E0086819680A1D05060BD50D68A4
:1059E0001A60002D03DA2D23049A6D421370614B67
:1059F0000A2703931BE00D681A604106F1D52DB20A
:105A0000EFE70D681968081D18602E0601D50D68AE
:105A100003E06D06FBD50D68ADB2564B0827039326
:105A20006F2A00D002372300002243331A706368C4
:105A3000A360002B03DB0422216891432160002D29
:105A400002D1049E002B0CD0049E28003900FEF7E2
:105A5000D1FC039B013E5B5C33702B0005009F4231
:105A6000F3D9082F09D12368DB0706D563682269BB
:105A7000934202DC3023013E3370049B9B1B236165
:105A8000079B210000930598069B09AAFFF7F4FEE7
:105A9000431C4CD1012040420BB0F0BD45310A708F
:105AA000344A03921A68216820CA1A60080616D57B
:105AB000CB0702D52023194321601027002DB2D136
:105AC000202322689A432260ADE7202209680A4316
:105AD00022602200782145321170274AE1E748060A
