:1000000002002EE4F522F5237524F4752501E4F5AC
:1000100026F527220000000000000000000000007C
:10002000000000000000000000000002026975816D
:1000300095120FE1E582600302009A780079007A58
:10004000007B007C007D00EC4D601C88828983E48D
:1000500093A3A882A9838A828B83F0A3AA82AB830D
:100060001CBCFFE31D80E07582007583007C007D71
:1000700000EC4D600AE4F0A31CBCFFF51D80F27596
:1000800082007583007C007D00EC4D600AE4F0A3E3
:100090001CBCFFF51D80F212000312058780FE4391
:1000A0006F6D6D616E643A20257300526573706FD9
:1000B0006E73653A2025730D0A000D0A4A44592DC6
:1000C000343020746573740D0A004C4F4C212100AC
:1000D00041542B44564944414343410D0A00415485
:1000E0002B5645520D0A0041542B424155440D0AEE
:1000F0000041542B524649440D0A0041542B4456AA
:1001000049440D0A0041542B5246430D0A00415404
:100110002B504F57450D0A0041542B434C53530D60
:100120000A000D507265737320616E6420686F6CF5
:10013000642074686520424F4F5420627574746F58
:100140006E20746F207472616E736D69742E0D0A67
:10015000001B5B324A005661726961626C65206601
:1001600072657175656E63792067656E657261741D
:100170006F7220666F72207468652045464D384C5A
:1001800042312E0D0A436865636B2070696E7320DF
:1001900050322E3020616E642050322E312077692B
:1001A000746820746865206F7363696C6C6F736327
:1001B0006F70652E0D0A002E004D6574616C205322
:1001C0007472656E6774683A202573004E657574A5
:1001D00072616C00536D616C6C004D656469756D86
:1001E000005374726F6E6700585374726F6E6700BD
:1001F000535353535374726F6E67000A416374759F
:10020000616C206672657175656E63793A20256C44
:10021000750A002563202530326420253032640DB4
:100220000A002563202530326420253032642053B3
:100230003A7C202564002563202530326420253057
:10024000326420533A4F2025640025632025303244
:1002500064202530326420533A38202564003C4E17
:100260004F20464C4F41543E00C0E0C0F0C0D07516
:10027000D000C2CF0522E4B522020523C3E52294B3
:10028000E8E523648094834005E4F522F523C3E583
:10029000229524E52364808525F063F08095F05055
:1002A00002B2B0D0D0D0F0D0E0325389FC438910F4
:1002B000538EFB758DF4758B47D28E22AA82AB8349
:1002C000ACF0FD75A72075930C75C8107594008A65
:1002D000128B138C148D1590A20075F04A740412C1
:1002E00011DFAA82AB83ACF0FD751218E4F513F5AB
:1002F00014F5158A828B838CF0ED1211DFAA82AB84
:1003000083ACF0FDE4C39AFAE49BFB74019CE49D8A
:100310008A958B96D2C943944075A70022AA82750C
:10032000A72010C90280FB8A9275A70022AA82AB7F
:100330008375A72010C90280FB8A9275A70022AAA4
:1003400082AB83ACF08A828B838CF01211C3FD6088
:10035000188D82C002C003C00412031DD004D00354
:10036000D0020ABA00DF0B80DC2275A72010C80279
:1003700080FB53C83F85928275A7002275A7207A1B
:10038000007B0020C82675A700758214C002C00338
:1003900012104DD003D00275A7200ABA00010BBA83
:1003A000A8E1BB61DE75A70075820A22C2C853C8E6
:1003B0003F85928275A70022AA82AB83ACF0C0026F
:1003C000C003C00412037CAD82D004D003D002BDB0
:1003D0000A0A8A828B838CF0E40214798A828B83E6
:1003E0008CF0ED121479A3AA82AB8380D175A7207B
:1003F000A2C875A70022AA82AB837C007D00C3EC53
:100400009AED9B50477E00BE04005039C002C003E5
:10041000C004C005C0061203EDE433D006D005D0F9
:1004200004D003D0026001227582FAC002C003C06A
:1004300004C005C00612104DD006D005D004D0036C
:10044000D0020E80C20CBC00B50D80B222AA82ABD5
:1004500083ACF0C002C003C004C002C003C0047477
:100460009FC0E07400C0E07480C0E0121458E581C1
:1004700024FAF581C2A1900005121077D004D003B0
:10048000D0028A828B838CF012033F90007C75F03F
:10049000401203B890000A121077D2A1747CC0E019
:1004A0007400C0E07440C0E074ABC0E07400C0E011
:1004B0007480C0E0121458E58124FAF5812275A7F2
:1004C00000C2EF75B28075BC2075B91E75E8007565
:1004D000DF3F75B300D2EF22AA828512F005F074D7
:1004E00001800225E0D5F0FBFB75A720BA00028051
:1004F0000ABA0102800FBA021E8014EBF4FA52F11C
:10050000EB42D48012EBF4FA52F2EB42D58008EBC6
:10051000F4FA52F3EB42CC75A700228582BBC2ED00
:10052000D2EC30EDFD85BD8285BE832212051B1203
:100530001244AA82AB83ACF0FDC002C003C004C069
:1005400005906C8B75F05374401212F5AA82AB8340
:10055000ACF0FDE58124FCF581E4C0E074FCC0E072
:10056000747FC0E07446C0E08A828B838CF0ED1209
:100570001532AA82AB83ACF0FDE58124FCF5818ABB
:10058000828B838CF0ED227A4E754458E4F545F564
:10059000469001F4C00212107774BAC0E07400C033
:1005A000E07480C0E01214581581158115819025E2
:1005B00080E4F5F01202BC9001F41210777512027B
:1005C0007582021204D87512037582021204D8755E
:1005D00012047582021204D8751205758202120483
:1005E000D81204BE121109751001D2009000CA750C
:1005F000F08012113B751002D2009000CA75F08095
:1006000012113B9000D075F08012044D9000DE7501
:10061000F08012044D9000E775F08012044D9000B8
:10062000F175F08012044D9000FB75F08012044DBE
:1006300090010575F08012044D90010E75F0801246
:10064000044D90011875F08012044D7422C0E074BE
:1006500001C0E07480C0E012145815811581158125
:100660007451C0E07401C0E07480C0E012145815E9
:1006700081158115817456C0E07401C0E07480C09A
:10068000E0121458158115811581D002C002C002F4
:1006900074B7C0E07401C0E07480C0E01214581553
:1006A000811581158175821012052CAE82AF83AB46
:1006B000F0FC8E2C8F2D8B2E8C2F75821112052C19
:1006C00085826385836485F065F566D00285633035
:1006D000856431856532856633C02CC02DC02EC03F
:1006E0002F90CCCD75F0CC743F121527AF82AA8322
:1006F000ABF0FCE58124FCF581C007C002C003C05B
:100700000490000075F0C874421212F5AA82AB83FF
:10071000ACF0FDE58124FCF5817433C0E0C0E074E9
:1007200053C0E07440C0E08A828B838CF0ED1215D8
:1007300032AA82AB83ACF0FDE58124FCF581C002D6
:10074000E4C0E0C0E0744CC0E07442C0E08A828B38
:10075000838CF0ED1213EA85824785834885F04942
:10076000F54AE58124FCF581D002C063C064C06510
:10077000C06690000075F0C874421212F5AA82ABF0
:1007800083ACF0FDE58124FCF581C0027466C0E015
:10079000C0E07456C0E07440C0E08A828B838CF065
:1007A000ED12153285824B85834C85F04DF54EE573
:1007B0008124FCF581D002D002E54B454C454D85A6
:1007C0004EF0C2F745F07009F54BF54CF54D754EFE
:1007D00040E54745484549854AF0C2F745F070096C
:1007E000F547F548F549754A40C002E4C0E0C0E06D
:1007F0007448C0E07442C0E08547828548838549DB
:10080000F0E54A121280AB82E58124FCF581D0022A
:10081000EB6033C002C003E4C0E0C0E07448C0E055
:100820007442C0E0854B82854C83854DF0E54E12C5
:100830001250AC82E58124FCF581D003D002EC603B
:10084000057C41020A31C002C003E4C0E0C0E0748C
:1008500048C0E07442C0E08547828548838549F0FE
:10086000E54A1212C5AD82E58124FCF581D003D0A2
:1008700002ED7037C002C003C005E4C0E0C0E07400
:1008800048C0E07442C0E0854B82854C83854DF0C2
:10089000E54E1212C5AE82E58124FCF581D005D06B
:1008A00003D002EE70057C42020A31C002C003C0D0
:1008B00005E4C0E0C0E07448C0E07442C0E0854791
:1008C000828548838549F0E54A121250AE82E5815F
:1008D00024FCF581D005D003D002EE603BC002C0FD
:1008E00003C005C006E4C0E0C0E07448C0E0744244
:1008F000C0E0854B82854C83854DF0E54E12128019
:10090000AF82E58124FCF581D006D005D003D0026A
:10091000EF60057C43020A31EE603BC002C003C0B9
:1009200005C006E4C0E0C0E07448C0E07442C0E026
:10093000854B82854C83854DF0E54E1212C5AF8202
:10094000E58124FCF581D006D005D003D002EF600C
:10095000057C44020A31EB6037C002C005C006E4E2
:10096000C0E0C0E07448C0E07442C0E0854B8285BE
:100970004C83854DF0E54E1212C5AB82E58124FC17
:10098000F581D006D005D002EB60057C45020A3126
:10099000ED6036C002C005C006E4C0E0C0E07448A7
:1009A000C0E07442C0E0854B82854C83854DF0E504
:1009B0004E1212C5AB82E58124FCF581D006D0052C
:1009C000D002EB60047C468068ED6032C002C00655
:1009D000E4C0E0C0E07448C0E07442C0E0854B82EF
:1009E000854C83854DF0E54E121280AB82E5812463
:1009F000FCF581D006D002EB60047C478033EE70BA
:100A00002EC002E4C0E0C0E07448C0E07442C0E020
:100A1000854B82854C83854DF0E54E1212C5AB8225
:100A2000E58124FCF581D002EB70047C4880027CD7
:100A300057740AB54506E4B54602800280027C532D
:100A4000C3740A9545E464808546F063F08095F0B0
:100A5000500E900001C002C004121077D004D002E2
:100A6000C3740A9545E464808546F063F08095F090
:100A70004003020AFBC3E5459413E5466480948075
:100A80005079C002C0041203EDE433D004D00260F8
:100A90005F90007C75F040C002C0041203B8D0041F
:100AA000D002787C8603BB4E028017BB4B028012BB
:100AB000BB4F02800DBB50028008BB4C028003BBC1
:100AC0004D2EC004747CC0E07400C0E07440C0E0EF
:100AD00074B9C0E07401C0E07480C0E0121458E53D
:100AE0008124FAF581D004787C8602E4F545F54648
:100AF0000545E4B545020546020A60BA4E42740156
:100B0000B52606E4B527028037C002C00474CCC005
:100B1000E07401C0E07480C0E07438C0E07400C0CC
:100B2000E07440C0E01214E1E58124FAF581D004BC
:100B3000D002E4F524F525752601E4F527020E26FA
:100B4000BA4D028003020BCF7402B52606E4B52726
:100B500002807CC002C00474D4C0E07401C0E074A0
:100B600080C0E07438C0E07400C0E07440C0E0129F
:100B700014E1E58124FAF5817524C8E4F525C2CA9B
:100B800075CA6375CBD5D2CAABCAADCBE4FEFFC381
:100B90009BFBE49DFD74019EFEE49FFFEB2BF51291
:100BA000ED33F513EE33F514EF33F51590A2007520
:100BB000F04A740412139885825F85836085F06122
:100BC000F562D004D002752602E4F527020E26BA9B
:100BD0004F028003020C5E7403B52606E4B52702BB
:100BE000807CC002C00474DAC0E07401C0E074808C
:100BF000C0E07438C0E07400C0E07440C0E012147B
:100C0000E1E58124FAF58175242C752501C2CA75A8
:100C1000CAD375CBD7D2CAABCAADCBE4FEFFC39B58
:100C2000FBE49DFD74019EFEE49FFFEB2BF512EDAE
:100C300033F513EE33F514EF33F51590A20075F08C
:100C40004A740412139885825F85836085F061F58C
:100C500062D004D002752603E4F527020E26BA4BB3
:100C6000028003020CED7404B52606E4B527028069
:100C70007CC002C00474E1C0E07401C0E07480C0B4
:100C8000E07438C0E07400C0E07440C0E01214E1C9
:100C9000E58124FAF581752490752501C2CA75CACB
:100CA000FF75CBD9D2CAABCAADCBE4FEFFC39BFB69
:100CB000E49DFD74019EFEE49FFFEB2BF512ED33E6
:100CC000F513EE33F514EF33F51590A20075F04AE5
:100CD000740412139885825F85836085F061F562E4
:100CE000D004D002752604E4F527020E26BA4C0281
:100CF0008003020D7C7405B52606E4B52702807CCE
:100D0000C002C00474E8C0E07401C0E07480C0E0B8
:100D10007438C0E07400C0E07440C0E01214E1E533
:100D20008124FAF5817524F4752501C2CA75CAF2C9
:100D300075CBDBD2CAABCAADCBE4FEFFC39BFBE4F1
:100D40009DFD74019EFEE49FFFEB2BF512ED33F544
:100D500013EE33F514EF33F51590A20075F04A74D5
:100D60000412139885825F85836085F061F562D0F7
:100D700004D002752605E4F527020E26BA5002803B
:100D800003020E267406B52607E4B52703020E26D5
:100D9000C002C00474F0C0E07401C0E07480C0E020
:100DA0007438C0E07400C0E07440C0E01214E1E5A3
:100DB0008124FAF581752458752502C2CA75CAAB1B
:100DC00075CBDDD2CAABCAADCBE4FEFFC39BFBE45F
:100DD0009DFD74019EFEE49FFFEB2BF512ED33F5B4
:100DE00013EE33F514EF33F51590A20075F04A7445
:100DF0000412139885825F85836085F061F56275C2
:100E00002606E4F527C05FC060C061C06274FBC005
:100E1000E07401C0E07480C0E0121458E58124F948
:100E2000F581D004D002C3E5459410E54664809472
:100E3000804005E4F545F54620860D7458B5440814
:100E40003086FD754459801E20860D7459B54408BE
:100E50003086FD75445A800E20860B745AB54406C0
:100E60003086FD754458208302AC44854B82854C06
:100E700083854DF0E54EC002C004121291AB82ADE5
:100E800083D0048547828548838549F0E54AC003BD
:100E9000C004C005121291AE82AF83D005D004D039
:100EA00003ECF5633395E0F564C003C005C006C0EC
:100EB00007C003C005C006C007C063C0647413C088
:100EC000E07402C0E07480C0E0747CC0E07400C0D4
:100ED000E07440C0E01214E1E58124F4F581900053
:100EE0007C75F04012033F9000051203F6D007D046
:100EF00006D005D003D0027458B5443CC002C05F90
:100F0000C060C061C062C003C005C006C007C06346
:100F1000C0647422C0E07402C0E07480C0E0744F0A
:100F2000C0E07400C0E07440C0E01214E1E5812428
:100F3000F0F581D002020FB67459B5443BC002C02F
:100F40005FC060C061C062C003C005C006C007C00A
:100F500063C0647436C0E07402C0E07480C0E074A2
:100F60004FC0E07400C0E07440C0E01214E1E581BD
:100F700024F0F581D002803E745AB54439C002C0D5
:100F80005FC060C061C062C003C005C006C007C0CA
:100F900063C064744AC0E07402C0E07480C0E0744E
:100FA0004FC0E07400C0E07440C0E01214E1E5817D
:100FB00024F0F581D002751001D20090004F75F039
:100FC00040C00212113B751002D20090003875F03B
:100FD0004012113BD0020545E4B545020546020624
:100FE0008C75A7007597DE7597AD75FF8075EF0658
:100FF00075A71075C12075A70075A90075A900E532
:10100000A930E7FB75A90375A903E5A930E7FB4300
:10101000A41143A60175E10175E20075E3417598DD
:1010200010758DE6858D8B53890F438920D28ED222
:101030009975C800438E1075CAEE75CBF675CEFF54
:1010400075CFFFD2ADD2CAD2AF75820022AA824339
:101050008E407592B87593FF85929485939575919E
:10106000047B00C3EB9A500BE59130E7FB53917F73
:101070000B80F075910022AA82AB837C007D00C3B7
:10108000EC9AED9B502B7E00BE0400501D7582FA39
:10109000C002C003C004C005C00612104DD006D067
:1010A00005D004D003D0020E80DE0CBC00D10D8030
:1010B000CE22D2A075822812104DC2A022AA828A06
:1010C000E0A2E79290A2E69291A2E59292A2E49227
:1010D00093C0021210B275822812104DD0028AE01D
:1010E000A2E39290A2E29291A2E19292A2E0929364
:1010F0000210B2D2971210BD900002021077C29770
:101100001210BD900005021077C2A09000141210BA
:10111000777582331210FE7582331210FE7582329B
:101120001210FE7582281210FE75820C1210FE75C8
:1011300082011210FE900014021077AA82AB83ACD9
:10114000F07402B510047DC080027D808D82C002E3
:10115000C003C0041210FE900005121077D004D016
:1011600003D0027D007E00ED2AFFEE3BF88C018F5C
:1011700082888389F01211C3FF60208F82C002C071
:1011800003C004C005C0061210F3D006D005D00479
:10119000D003D0020DBD00CF0E80CC3000248D02D4
:1011A0008E03C3EA9410EB648094805015758220FE
:1011B000C002C0031210F3D003D0020ABA00E30B3E
:1011C00080E02220F71430F6148883A88220F507E7
:1011D000E6A88375830022E280F7E49322E022FBF5
:1011E0007A20E4FCFDFEFFE5822582F582E583336B
:1011F000F583E5F033F5F0EB33FB4017DAE9804295
:10120000E5822582F582E58333F583E5F033F5F059
:10121000EB33FBEC33FCED33FDEE33FEEF33FFEC51
:101220009512ED9513EE9514EF95154013EC95126C
:10123000FCED9513FDEE9514FEEF9515FF4382012D
:10124000DABEEB22E4AC83AB82FAF9748E02165A52
:10125000FFA8811818121682D2D133E6400730E772
:101260000B7582012220E70675820022C2D1121678
:1012700064E97003F5822230D101B3E433F58222B0
:10128000FFA8811818121682121664E96401F5820B
:10129000221216AD700AE582458345F0700122E402
:1012A00030D112F4700BE5F0F47006E58330E701FD
:1012B0002290800022700AE5F07006E58320E701A5
:1012C00022907FFF22FFA8811818121682D2D133F4
:1012D000E6400730E70B7582002220E706758201A1
:1012E00022C2D1121664E97003F5822220D101B323
:1012F000E433F5822212178ABC0003021729EF603B
:10130000FA30D502B2D1E583B4FF0302173FE5827C
:10131000B4FF0302173F258340072482400B0217C6
:1013200029248314500302173FF582EA8DF0A4A804
:10133000F0EA8EF0A428F8E435F0F9EB8DF0A4285B
:10134000E935F0F9E433CA8FF0A429F9EA35F0FA67
:10135000EBF88EF0A429F9EA35F0FAE433FBEC8DD2
:10136000F0A429F9EA35F0FAE43BFBE88FF0A42A6F
:10137000FAEB35F0FBE433CCFD8EF0A42AFAEB3522
:10138000F0FBE43CFCED8FF0A42BFBEC35F0FC20F3
:10139000E703121757021708FBC2D530E715D2D55D
:1013A000E4C39582F582E49583F583E495F0F5F046
:1013B000E49BFBE51530E717B2D5E4C39512F512AF
:1013C000E49513F513E49514F514E49515F515EB70
:1013D0001211DF30D513FBE4C39582F582E49583C7
:1013E000F583E495F0F5F0E49B2212178A7900E585
:1013F00083B58202800D50031217B8E583C395822E
:101400001217D2E5D0C465D020E117EA2DFAEB3EE1
:10141000FBEC3FFC500974011217D2EC4480FC0233
:101420001708C3EA9DFAEB9EFBEC9FFC500FC3E448
:1014300099F9E49AFAE49BFBE49CFCB2D1121757A9
:10144000021708021E3585827585837685F07785BB
:10145000117890144302189EC008858108E508247D
:10146000FBF578E50824FBF886750886760886770C
:1014700090144312189ED0082220F71030F61188DD
:1014800083A88220F507F6A88375830022F280F7EF
:10149000F022AA82AB09AC0AAD0B8B828C838DF053
:1014A000EA1214790509E4B50902050A22858209C0
:1014B00085830A85F00B850C75850D76850E7785FD
:1014C0000F7890149212189EAA82AB83AC09AD0AD1
:1014D000AE0B8C828D838EF0E41214798A828B831A
:1014E00022C008858108E50824F8F578E50824FB82
:1014F000F8860908860A08860BE50824F8F8867538
:1015000008867608867790149212189EAA82AB837A
:10151000AC09AD0AAE0B8C828D838EF0E412147987
:101520008A828B83D00822A8811818C6B2E7C60227
:1015300013EA12178A30D502B2D1BF0009BC0003EA
:1015400002174C02173FBC0003021729E583B4FFC2
:101550000BE582B4FF0302174C021729E582B4FFA2
:101560000302173FC395835007247F400B021729BE
:10157000248014500302173FC0E0E4CCCBCAF98D9D
:10158000128E138F14EF54F0C4F51575830685156C
:10159000F0EB84F582E9C4F9EAC4FAEBC4FBEC543D
:1015A0000FC47803D6FC18EBD6FB18EAD6FA85826E
:1015B000F0EDA4A8F0FD8582F0EEA428FEE435F05D
:1015C000F88582F0EFA428FFE435F0F8E99DF9EA08
:1015D0009EFAEB9FFBEC98FCAD12AE13AF1430E714
:1015E000101582E92DF9EA3EFAEB3FFBE43CFC8062
:1015F000EDC082D58398C3E933F9EA33FAEB33FBC4
:10160000EC33FCC3E99DEA9EEB9FEC9400B3E4133A
:10161000F9D002D0E0C44AFAD003D0E0C44BFBD0EA
:1016200004D0E0F5F0540FC44CFCD082158230F4A5
:101630000FD3EC13FCEB13FBEA13FAE913F9058261
:10164000E930E70A74012AFAE43BFBE43CFC0217A8
:1016500020FCABF0AA83A982749EC2D1F582121736
:10166000570217087901AA82E68F82B5821318E61D
:10167000B5F00E18E6B5830918E68A82B5820279BC
:101680000022B4800FE5F0700AE5837006E58270F1
:10169000027F00EFB6801518B6001018B6000B18C0
:1016A000B6000608080876002208080822121E4A1A
:1016B000C3749E9582403979001217D230D126E941
:1016C000F42401F582EAF43400F583EBF43400F5F8
:1016D000F0ECF43400700AE582458345F070012295
:1016E000E430E70F22EC20E71489828A838BF02212
:1016F00030D10AE4F582F583F5F074802274FFF5A9
:1017000082F583F5F0747F22B98003EA13B34010A9
:10171000EA2401FAE43BFBE43CFC50047C800582B3
:10172000BC000EBB000BBA0008E4F5F0F583F582AF
:1017300022A2D1E582138CF092F78B838A8222E475
:10174000F583F58275F080F4A2D11322E4F583F5D8
:101750008275F0C0747F227804EC7011E58224F861
:10176000500AF582E4C9CACBFCD8EF22EC782005F8
:101770008220E713D5820122C3E933F9EA33FAEB79
:1017800033FBEC33FCD8EA158222AA82AB83A2F7A2
:101790003392D16002D2F7F582ACF0E58124F9F8FA
:1017A000E6FD08E6FE0886F008E6A2F73392D5606B
:1017B00002D2F7F583AFF022E582C583F582A2D18C
:1017C00033A2D592D11392D5ECCFFCEBCEFBEACD70
:1017D000FA226040F82582500274FFF582E824F86E
:1017E000501ECCCBCAF9E4CC24F85014CBCAF9E48F
:1017F000CB24F8500BCAF9E4CA24F850037900222C
:1018000024086010F8C3EC13FCEB13FBEA13FAE9AD
:1018100013F9D8F122AA827426C0E07418C0E0C07F
:1018200067C0688A8222056EE4B56E02056F22AA3F
:101830008274302AFA24C6500A74072AFA30010347
:101840004302208A82021815E582FAC4540FF582F9
:10185000C00212182FD002740F5AF58202182FAA54
:1018600069AB6AAC6BAD6CAE6D757420EE2EFEED9F
:10187000235401FF4206EA2AFAEB33FBEC33FCED7A
:1018800033FDC3EE95704008EEC39570FE43020130
:10189000D574D98A698B6A8C6B8D6C8E6D2285822A
:1018A00067858368E4F56EF56FAA75AB76AC778AC9
:1018B000828B838CF01211C3FD74012AF575E43B11
:1018C000F5768C77EDFA7003021E2EBA250280039E
:1018D000021E26C205C206C207C208C209C20AC247
:1018E0000BC20CC202C203C2047570007571007590
:1018F00072FFAB75AC76AD778B828C838DF0121155
:10190000C3FAA3AB82AC838B758C768D77BA25072F
:101910008A8212181580928A06BE3000402E8A06EE
:10192000EE24C6402774FFB57213E57175F00AA462
:10193000FEEA24D02EF57170BFD20680BBE5727529
:10194000F00AA4FEEA24D02EF57280ACBA2E0A74F6
:10195000FFB572A4757200809F8A06BE6100400EBA
:101960008A06EE248540075302DFD2018002C201BD
:10197000BA20028075BA23030219F9BA2A030219A0
:10198000FEBA2B02805FBA2D028055BA4202805FF8
:10199000BA4303021A43BA4403021B7EBA45030248
:1019A0001B98BA4603021B94BA4703021B9CBA4910
:1019B00003021B7EBA4C02803BBA4E03021BA0BA44
:1019C0004F03021B85BA5003021B17BA5303021AB6
:1019D00067BA5503021B8ABA5803021B8F021BCA3F
:1019E000D2050218F8D2070218F8D2080218F8D265
:1019F0000A0218F8D20B0218F8D20C0218F874FF79
:101A0000B57220300A0BE57814F8887886710218D0
:101A1000F8E57824FEF888788606088607188E711F
:101A20000218F8300A0BE57814F8887886720218E4
:101A3000F8E57824FEF888788606088607188E72FE
:101A40000218F8300A0AE57814F888788602800FC0
:101A5000E57824FEF888788603088604188B028AC5
:101A600082121815021BCFE57824FDF888788603CA
:101A700008860408860518188B698C6A8D6B8B8222
:101A80008C838DF0121E5CAB82AC838B7374FFB5BC
:101A9000720385737220051DC3E57395715016E5B9
:101AA00071C39573F571AB711571EB600875822088
:101AB00012181580F1856982856A83856BF0121191
:101AC000C3FBFA6029AB721572C3E464808BF063C8
:101AD000F08095F050188A82121815AB69AC6AAD87
:101AE0006B0BBB00010C8B698C6A8D6B80C720056A
:101AF00003021BCFC3E57395714003021BCFE57151
:101B0000C39573F571AB711571EB7003021BCF7543
:101B1000822012181580EEE57824FDF88878860377
:101B200008860408860518188B698C6A8D6BE56B2E
:101B3000FB30E7047A438013EB546060047A5080F2
:101B40000AEB30E6047A4980027A588A82C002128F
:101B5000181575823A12181575823012181575828B
:101B600078121815D002BA4902800BBA50028006CA
:101B7000856A821218488569821218488051D209F4
:101B800075700A804A757008804575700A804075C6
:101B90007010803BD2028037D2038033D204802F72
:101BA000E57824FDF88878860308860408860518F9
:101BB000188B698C6A8D6B8B828C838DF0E56E122D
:101BC0001479A3E56F12147980058A821218152002
:101BD000020620030330045AE57824FCF88878864E
:101BE000030886040886050886061818188B698C71
:101BF0006A8D6B8E6C75695E756A02756B8085691E
:101C000079856A7A856B7B74012579FEE4357AFFE4
:101C1000AB7B8E698F6A8B6B857982857A83857BB6
:101C2000F01211C3FBFA70030218A98A8212181568
:101C300080CCE57070030218A97B95300A2BE578FB
:101C400014F88878E6FC3395E0FDFEFF8C698D6A18
:101C50008E6B8F6C20095EAC697D007E007F008CEE
:101C6000698D6A8E6B8F6C804C300B1FE57824FC7D
:101C7000F8887886040886050886060886071818F6
:101C8000188C698D6A8E6B8F6C802AE57824FEF83B
:101C90008878860408860518ED3395E0FEFF8C6988
:101CA0008D6A8E6B8F6C20090CAC69AD6A7E007FEB
:101CB000008E6B8F6C300C43E569456A456B456C53
:101CC00060397408B5700C758230C003121815D0D5
:101CD0000380287410B57023758230C00312181564
:101CE000D00330010C758278C003121815D0038020
:101CF0000A758258C003121815D003300925AC6943
:101D0000AD6AAE6BE56CFF30E717C3E49CFCE49D65
:101D1000FDE49EFEE49FFF8C698D6A8E6B8F6C8064
:101D200002C209757300D20D8B00756D00C00012E0
:101D3000185FD000200D0DE56DC4FCE6FD4CF618D3
:101D400088038002A66D0573B20DE569456A456B8F
:101D5000456C70D68803E571700375710120061A11
:101D6000200517E57304FCC39571500E758220C0E1
:101D700003121815D003157180E930090E75822DF4
:101D8000C003121815D00315718024E5736020304C
:101D9000070E75822BC003121815D0031571800F22
:101DA00030080C758220C003121815D0031571205D
:101DB000051EAC711571C3E5739C50273006047C79
:101DC0003080027C208C82C003121815D00380E280
:101DD000C3E57395715009E571C39573F57180037F
:101DE0007571008B00AB731573EB6022B20D200D83
:101DF0000A08E6C4540FFB8B6D80078603740F5BE3
:101E0000F56D856D82C00012182FD00080D7200597
:101E1000030218A9AB711571EB70030218A9758242
:101E20002012181580EE8A821218150218A9856EE4
:101E300082856F8322AA82BA0A0810990280FB75F4
:101E4000990D10990280FB8A9922AA82AB83A2F78E
:101E50003392D16002D2F7F582ACF022AA82AB8332
:101E6000ACF07D007E008A828B838CF01211C3FF60
:101E7000A3AA82AB83EF60070DBD00EA0E80E78D59
:101E8000828E83220000000000000000000000009D
:00000001FF
